:100000000C9409010C9426010C9426010C944002D6
:100010000C9426010C9426010C9426010C942601C4
:100020000C9426010C9426010C9418090C94520986
:100030000C9426010C9426010C9426010C942601A4
:100040000C9426010C9426010C9426010C94260194
:100050000C94F9020C9426010C9426010C942601B0
:100060000C9426010C9426010C9426010C94260174
:100070000C9426010C9426010C9426010C94260164
:100080000C9426010C9426010C9426010C94260154
:100090000C9426010C9426010C9426010C94260144
:1000A0000C9426010C9426010C942601C008B80873
:1000B000B008A808A0089808900888088008780860
:1000C0007008680860085808500848084008380850
:1000D0003008280820081808100808080008F80741
:1000E000F007E807E007D807D007C807C007B80738
:1000F000B007A807A0079807900788078007780728
:100100007007680760075807500748074007380717
:100110003007280720071807100708070007F80608
:10012000F006E806E006D806D006C806C0060A0DA6
:100130000073746F7077617463685F6E6F773A09EC
:10014000000A0D00090072665F646174613A09007B
:100150000A0D00494D5520646174613A090000019F
:100160000000F5011200020000B20143000300008C
:10017000AE0104010309049A011202030904920169
:100180000603030904880108080334003100300025
:10019000000006034D003200000012034A002E004A
:1001A00020004600690065006E0065000000040341
:1001B000090409024300020100C0320904000001E1
:1001C000020201000524001001052401010104249C
:1001D00002060524060001070582031000400904F9
:1001E0000100020A000000070503024000000705A5
:1001F00084024000001201000202000010C0167AC2
:10020000040001010203010001C1120180360181D5
:10021000360011241FBECFEFDAE0DEBFCDBF11E004
:10022000A0E0B1E0EAEFFAE102C005900D92A4313E
:10023000B107D9F721E0A4E1B1E001C01D92A335D7
:10024000B207E1F70E94070D0C940C0D0C9400000E
:100250000F931F93CF93DF930E945402C82F0E94E5
:100260009A02182F0E949201D82F6091010180916B
:1002700002010E94A601082F809141010E941E03E5
:10028000912F990FDD0FDD0F9D0F9C0F28E0029F2E
:10029000900D1124789420E1829F900D1124892FD4
:1002A000DF91CF911F910F9108950F931F93CF93DB
:1002B000DF9300D000D0CDB7DEB70E94770288234D
:1002C00029F16A9A8EB194E089278EB989E191E08B
:1002D0000E949E010E94CC02AB01BC01403A86E81C
:1002E000580781E06807710550F049835A836B8392
:1002F0007C830E9481027C816B815A81498101E16A
:1003000010E029E131E080E00E94B3010F900F90EE
:100310000F900F90DF91CF911F910F9108958091D1
:100320004301089560E080E00E94A10B91E08111FB
:1003300001C090E090934301892F08950E94070C1B
:1003400091E0811101C090E0892F0895982F862FA8
:1003500040910801692F0E94BC0491E0811101C005
:1003600090E0892F0895F9018093000070930100B7
:1003700060930200509303004093040080818093B7
:10038000050081818093060082818093070083812C
:1003900080930800848180930900858180930A00FE
:1003A000868180930B00878180930C0080858093E9
:1003B0000D00818580930E00828580930F008385D8
:1003C000809310004091080160E070E08091070187
:1003D0000E94650580E00895609108010E9414055F
:1003E00091E0811101C090E0892F0895EF92FF9272
:1003F0000F931F93CF93DF931F92CDB7DEB7EDB668
:10040000FEB6198201E010E09E012F5F3F4F40E0F1
:1004100050E0BA0180E00E94B3012FEF31EE84E09A
:10042000215030408040E1F700C000008091080179
:1004300090910901EDB7FEB7E81BF90B0FB6F894E0
:10044000FEBF0FBEEDBF0DB71EB70F5F1F4FC80138
:100450000E94EC01882329F081E0F80190819D3011
:1004600009F080E081700FB6F894FEBE0FBEEDBEBD
:100470000F90DF91CF911F910F91FF90EF90089512
:100480001F920F920FB60F9211240F900FBE0F9074
:100490001F901895E1E6F0E080E88083108281E00B
:1004A000089580914A0108950E944A02E1E9F0E02E
:1004B00080818B7F808380818260808380818E7F3A
:1004C000808380818F7E8083808188608083E0E963
:1004D000F0E080818D7F808380818E7F808384EFB8
:1004E00091E0909399008093980081E0089598B3EB
:1004F00091FB882780F991FDC19A0895809145016B
:100500000895F89410924601109247011092480104
:10051000109249011092850010928400209184006D
:1005200030E0809185007894382B81E0232B09F00E
:1005300080E00895F8940E944A02E1E8F0E08081AA
:100540008460808380818D7F8083808181608083CF
:1005500080818F7E80838081877F8083E0E8F0E0E8
:1005600080818D7F808380818E7F8083EFE6F0E0C5
:100570008081816080831092460110924701109221
:1005800048011092490181E0809345010E94810257
:1005900078948091450108950F931F936091840092
:1005A0002091850070E080E090E0722B0091460180
:1005B000109147012091480130914901980111277C
:1005C0000027600F711F821F931F1F910F910895C5
:1005D000CF92DF92EF92FF926B017C010E94CC02DE
:1005E0006C197D098E099F09FF90EF90DF90CF90E5
:1005F00008951F920F920FB60F9211248F939F931D
:10060000AF93BF938091460190914701A09148011B
:10061000B09149010196A11DB11D809346019093AF
:100620004701A0934801B0934901BF91AF919F91B9
:100630008F910F900FBE0F901F901895882381F017
:100640006E9A76980E94B5050E94CE058823E1F344
:100650000E94CE0591E0811101C090E0892F08959C
:1006600080E008951F93CF93DF930E94F601C82F77
:100670000E948F01182F0E945102D82F0E947E02E3
:10068000112311F092E001C090E0C90FDD2311F0B9
:1006900094E001C090E0C90F882311F098E001C0F8
:1006A00090E0C90F8C2F90E00E94D50A81E0C11123
:1006B00001C080E0DF91CF911F910895DF92EF920A
:1006C000FF920F931F93CF93DF938C01E62E83E568
:1006D00091E00E94A10AE80100E010E0DD24D3943B
:1006E000FF24E7FCF0940E151F055CF489E00E94DE
:1006F0000E06D822899199910E94D50A0F5F1F4F4B
:10070000F2CF80E591E00E94A10A8D2DDF91CF917B
:100710001F910F91FF90EF90DF9008950F931F931B
:10072000CF93DF93EC01888181115EC086E491E074
:100730000E94A10A8881992787FD90950E94D50A79
:1007400084E491E00E94A10A6981862F992787FDA0
:100750009095A92FB92F982F8827772766270A8188
:10076000112707FD1095212F312F98011127002700
:10077000600F711F821F931F0C81112707FD1095B9
:10078000212F312F600F711F821F931F0B811127A3
:1007900007FD1095212F312F322F212F102F0027E9
:1007A000600F711F821F931F0E94390B8E010B5F18
:1007B0001F4F80910A0190910B0198012C1B3D0B5A
:1007C0002817390754F489E00E940E06F801819138
:1007D00091918F010E94D50AECCF81E491E00E94B3
:1007E000A10A89E00E940E0681E0DF91CF911F915E
:1007F0000F91089580E00895CF92DF92EF92FF92DB
:100800006B017C0181E391E00E94A10AC701B6015E
:100810000E946D0B8EE291E00E94A10A81E0FF90A0
:10082000EF90DF90CF900895589A599A5A9A8CE099
:100830008093B800E9E6F0E0808180628083808167
:100840008F7E8083EA9A7894089584E88093BC0030
:100850008091BC0087FFFCCF8091BB00089584E9A4
:100860008093BC00089520E030E08091BC0087FDBB
:1008700006C02F5F3F4F293E83E03807B1F781E084
:10088000283E334009F480E008958093BB0084E85B
:100890008093BC000E943304882321F08091B9002A
:1008A000887F089580E008951F93CF93DF931F9270
:1008B000CDB7DEB7182F84EA8093BC0069830E940D
:1008C00033046981811104C094E99093BC0014C081
:1008D000812F880F662331F08F5F0E944504883492
:1008E00051F404C00E944504803229F484E98093C5
:1008F000BC0080E001C081E00F90DF91CF911F919B
:100900000895CF93DF93C82FD62F60E00E94540440
:10091000882391F08D2F0E944504882369F084E993
:100920008093BC0061E08C2F0E945404882321F046
:10093000DF91CF910C94250480E0DF91CF91089551
:10094000CF93DF93D62FC42F60E00E94540481110F
:1009500002C080E00EC08D2F0E9445048823C9F399
:100960008C2F0E9445048823A1F384E98093BC0066
:1009700081E0DF91CF910895CF93DF9300D01F9254
:10098000CDB7DEB74B836A8389830E94140494EA4F
:100990009093BC0089816A814B819091BC0097FF44
:1009A000FCCF90E59093BB0094E89093BC009091AD
:1009B000BC0097FFFCCF9091B900987F903229F44A
:1009C00084E98093BC0080E029C091E09093BB0053
:1009D00094E89093BC009091BC0097FFFCCF80936B
:1009E000BB0084E88093BC008091BC0087FFFCCFF3
:1009F0006093BB0084E88093BC008091BC0087FFBB
:100A0000FCCF4093BB0084E88093BC008091BC0085
:100A100087FFFCCF84E98093BC0081E00F900F90AA
:100A20000F90DF91CF91089524EA2093BC0020918C
:100A3000BC0027FFFCCF21E52093BB0024E82093D6
:100A4000BC002091BC0027FFFCCF2091B900287F7B
:100A50002834A9F024EC2093BC002091BC0027FF8F
:100A6000FCCF2091BB0026130AC0FC0120E030E03F
:100A7000772767FD70956150710944EC0EC084E9D9
:100A80008093BC0080E008955091BC0057FFFCCFDC
:100A90005091BB0051932F5F3F4F261737071CF42F
:100AA0004093BC00F1CF44E84093BC004091BC00AF
:100AB00047FFFCCF4091BB00FC01E20FF31F4083D6
:100AC00084E98093BC0081E00895F89494EA9093BF
:100AD000BC009091BC0097FFFCCF90E59093BB00C9
:100AE00094E89093BC009091BC0097FFFCCF90914C
:100AF000B900987F903231F484E98093BC007894F7
:100B000080E0089593E09093BB0094E89093BC003C
:100B10009091BC0097FFFCCF8093BB0084E880934A
:100B2000BC008091BC0087FFFCCFFB01552747FD2F
:100B3000509524E8CF01861B970B8417950754F432
:100B400081918093BB002093BC008091BC0087FF03
:100B5000FCCFF0CF84E98093BC00789481E00895C5
:100B60008091E80080FFFCCF089581E08093D7005A
:100B700080EA8093D80082E189BD09B400FEFDCFF0
:100B800080E98093D8001092E00010924E011092FC
:100B90004B018CE08093E2007894089580914E019F
:100BA00008959FB7F89480914E01882339F083E02F
:100BB0008093E9008091E80085FD03C09FBF8FEF1F
:100BC00008958091F1002091E80025FD03C02BE6F7
:100BD0002093E8009FBF08959FB7F89480914E013D
:100BE000882331F083E08093E9008091F20001C016
:100BF00080E09FBF089580914E01882371F08FB7E8
:100C0000F89493E09093E9002BE69091E80095FF2B
:100C100003C02093E800F9CF8FBF089590914E0153
:100C2000992371F09FB7F89424E02093E900209174
:100C30004C01222349F02091E80025FD03C09FBF0D
:100C40008FEF089510924C012091E400275E34E06C
:100C50004091E80045FD12C09FBF9091E4009213BF
:100C600004C081E080934C01EBCF90914E01992319
:100C700039F39FB7F8943093E900EACF8093F100FD
:100C80008091E80085FD03C08AE38093E80085E059
:100C900080934D019FBF80E0089590914E0199236C
:100CA000D1F09FB7F89424E02093E9002091E80068
:100CB00025FD02C09FBF0FC08093F1008091E80026
:100CC00085FD03C08AE38093E80085E080934D01B1
:100CD0009FBF80E008958FEF0895EF92FF921F93DA
:100CE000CF93DF937C01CB0120914E01222371F041
:100CF000AFB7F89424E02093E90020914C0122231F
:100D000049F02091E80025FD03C0AFBF8FEF42C23C
:100D100010924C01B4E0C0E4DAE315E0009709F466
:100D200037C22091E400275E3091E80035FD12C003
:100D3000AFBF3091E400321304C081E080934C01D6
:100D4000E5CF30914E01332309F3AFB7F894B09358
:100D5000E900EACF2091F2004C2F421B242F30E013
:100D60008217930708F4482F841B910950E04134FF
:100D7000510508F0FDC14A5A5F4FFA010C94750DF8
:100D8000F70120812093F10097012F5F3F4F7901F8
:100D9000F70120812093F10097012F5F3F4F7901E8
:100DA000F70120812093F10097012F5F3F4F7901D8
:100DB000F70120812093F10097012F5F3F4F7901C8
:100DC000F70120812093F10097012F5F3F4F7901B8
:100DD000F70120812093F10097012F5F3F4F7901A8
:100DE000F70120812093F10097012F5F3F4F790198
:100DF000F70120812093F10097012F5F3F4F790188
:100E0000F70120812093F10097012F5F3F4F790177
:100E1000F70120812093F10097012F5F3F4F790167
:100E2000F70120812093F10097012F5F3F4F790157
:100E3000F70120812093F10097012F5F3F4F790147
:100E4000F70120812093F10097012F5F3F4F790137
:100E5000F70120812093F10097012F5F3F4F790127
:100E6000F70120812093F10097012F5F3F4F790117
:100E7000F70120812093F10097012F5F3F4F790107
:100E8000F70120812093F10097012F5F3F4F7901F7
:100E9000F70120812093F10097012F5F3F4F7901E7
:100EA000F70120812093F10097012F5F3F4F7901D7
:100EB000F70120812093F10097012F5F3F4F7901C7
:100EC000F70120812093F10097012F5F3F4F7901B7
:100ED000F70120812093F10097012F5F3F4F7901A7
:100EE000F70120812093F10097012F5F3F4F790197
:100EF000F70120812093F10097012F5F3F4F790187
:100F0000F70120812093F10097012F5F3F4F790176
:100F1000F70120812093F10097012F5F3F4F790166
:100F2000F70120812093F10097012F5F3F4F790156
:100F3000F70120812093F10097012F5F3F4F790146
:100F4000F70120812093F10097012F5F3F4F790136
:100F5000F70120812093F10097012F5F3F4F790126
:100F6000F70120812093F10097012F5F3F4F790116
:100F7000F70120812093F10097012F5F3F4F790106
:100F8000F70120812093F10097012F5F3F4F7901F6
:100F9000F70120812093F10097012F5F3F4F7901E6
:100FA000F70120812093F10097012F5F3F4F7901D6
:100FB000F70120812093F10097012F5F3F4F7901C6
:100FC000F70120812093F10097012F5F3F4F7901B6
:100FD000F70120812093F10097012F5F3F4F7901A6
:100FE000F70120812093F10097012F5F3F4F790196
:100FF000F70120812093F10097012F5F3F4F790186
:10100000F70120812093F10097012F5F3F4F790175
:10101000F70120812093F10097012F5F3F4F790165
:10102000F70120812093F10097012F5F3F4F790155
:10103000F70120812093F10097012F5F3F4F790145
:10104000F70120812093F10097012F5F3F4F790135
:10105000F70120812093F10097012F5F3F4F790125
:10106000F70120812093F10097012F5F3F4F790115
:10107000F70120812093F10097012F5F3F4F790105
:10108000F70120812093F10097012F5F3F4F7901F5
:10109000F70120812093F10097012F5F3F4F7901E5
:1010A000F70120812093F10097012F5F3F4F7901D5
:1010B000F70120812093F10097012F5F3F4F7901C5
:1010C000F70120812093F10097012F5F3F4F7901B5
:1010D000F70120812093F10097012F5F3F4F7901A5
:1010E000F70120812093F10097012F5F3F4F790195
:1010F000F70120812093F10097012F5F3F4F790185
:10110000F70120812093F10097012F5F3F4F790174
:10111000F70120812093F10097012F5F3F4F790164
:10112000F70120812093F10097012F5F3F4F790154
:10113000F70120812093F10097012F5F3F4F790144
:10114000F70120812093F10097012F5F3F4F790134
:10115000F70120812093F10097012F5F3F4F790124
:10116000F70120812093F10097012F5F3F4F790114
:10117000F70120812093F10097012F5F3F4F790104
:101180002091E80025FFD093E80010934D01C6CDD3
:10119000AFBF80E0DF91CF911F91FF90EF90089556
:1011A0008FB7F89490914D01992341F094E090937A
:1011B000E9009AE39093E80010924D018FBF0895E3
:1011C000809110010895809111010895809112017C
:1011D000089580914B0108959FB7F89420914E0196
:1011E000222339F022E02093E9003091E80035FD18
:1011F00003C09FBF8FEF089531EA3093F10030E2D2
:101200003093F1001092F1001092F1001092F10071
:101210001092F1002093F1001092F1008093F10000
:101220001092F1008AE38093E8009FBF80E0089568
:101230001F920F920FB60F9211248F939F9380915C
:10124000E1001092E10083FF11C01092E90091E0EB
:101250009093EB001092EC0092E19093ED0098E0F7
:101260009093F00010924E0110924B0182FF13C038
:1012700080914E01882379F080914D01882359F0A7
:10128000815080934D01811106C084E08093E90074
:101290008AE38093E8009F918F910F900FBE0F908B
:1012A0001F9018951F920F920FB60F921124EF9274
:1012B000FF920F931F932F933F934F935F936F93DF
:1012C0007F938F939F93AF93BF93EF93FF93CF93AE
:1012D000DF931F92CDB7DEB71092E9008091E8004E
:1012E00083FF14C19091F1008091F1003091F100E1
:1012F0002091F100E32EF12CF22A0091F1002091CF
:10130000F10010E0122B2091F1006091F10032EF1A
:101310003093E800863009F046C036E08EE591E073
:10132000FC01459154914E155F0539F4FC0132964C
:10133000459154914017510721F00796315081F79C
:10134000E5C0FC01349645915491FC013696849198
:1013500030E0362B2F3F310519F010F02FEF30E041
:10136000281708F4822F3EEF9091E800292F25706E
:10137000D9F392FDCEC0982F813108F090E1FA01A7
:10138000292F222331F064916093F100215031968E
:10139000F8CF490F511D891B3093E8008111E4CF2C
:1013A000903111F3B6C0853051F48EEF8093E80090
:1013B0000E94B0058E2D80688093E300AAC089301A
:1013C00059F5911180C0E0924E0110924B0110929C
:1013D0004D018EEF8093E80041E087E092E040937A
:1013E000E9009C012F5F3F4FFC0154915093EB00AB
:1013F000552359F0F90124912093EC009C012D5FB5
:101400003F4F319684918093ED004F5F453011F04E
:10141000C901E5CF8EE175C0883051F4903809F0EC
:1014200052C00E94B00580914E018093F10047C0E8
:10143000813279F4913A09F046C00E94B005ECE09F
:10144000F1E081918093F10081E0E331F807C9F781
:1014500036C0803299F49132B1F58091E80082FF74
:10146000FCCFECE0F1E08091F100819381E0E33189
:10147000F807C9F78BEF8093E80021C0823241F46E
:10148000913209F043C0E0924B010E94B00517C0B1
:10149000811119C099830E94B0059981923851F445
:1014A0000093E9008091EB0085FB882780F910927A
:1014B000E90001C080E08093F1001092F1008EEF0E
:1014C0008093E80026C0282F2D7F2130F9F4923038
:1014D000E9F4EF28D9F40F779FEF900F9430B0F430
:1014E0009EEF9093E8000093E900833079F089E162
:1014F0008093EB0081E090E0002E01C0880F0A94F9
:10150000EAF78093EA001092EA0003C081E2809338
:10151000EB000F90DF91CF91FF91EF91BF91AF91D1
:101520009F918F917F916F915F914F913F912F91FB
:101530001F910F91FF90EF900F900FBE0F901F9093
:1015400018951F93CF93DF93EC01FE0114911123A3
:1015500051F01A3019F48DE00E940E06812F0E947E
:101560000E062196F2CFDF91CF911F9108958A3018
:1015700010F490E301C097E3890F0C940E06CF930B
:10158000C82F82958F700E94B70A8C2F8F70CF91D1
:101590000C94B70ACF93C82F892F0E94BF0A8C2FB3
:1015A000CF910C94BF0A0C94BF0AEF92FF920F9355
:1015B0001F93CF93DF93CDB7DEB727970FB6F8947D
:1015C000DEBF0FBECDBF8E010F5F1F4F27E0F801BA
:1015D00011922A95E9F74AE0B8010E940F0D7E01A9
:1015E000F8E0EF0EF11CF80181918F0181110E944A
:1015F0000E060E151F05B9F727960FB6F894DEBF35
:101600000FBECDBFDF91CF911F910F91FF90EF9053
:101610000895EF92FF920F931F93CF93DF9300D023
:1016200000D01F92CDB7DEB78E010F5F1F4F25E0B0
:10163000F80111922A95E9F74AE0B8010E944B0D92
:101640007E01F6E0EF0EF11CF80181918F0181110E
:101650000E940E060E151F05B9F70F900F900F9000
:101660000F900F90DF91CF911F910F91FF90EF900E
:101670000895EF92FF920F931F93CF93DF93CDB70F
:10168000DEB72B970FB6F894DEBF0FBECDBF8E012D
:101690000F5F1F4F2BE0F80111922A95E9F72AE01E
:1016A000A8010E941A0D7E01FCE0EF0EF11CF8016A
:1016B00081918F0181110E940E060E151F05B9F749
:1016C0002B960FB6F894DEBF0FBECDBFDF91CF9142
:1016D0001F910F91FF90EF900895EF92FF920F935B
:1016E0001F93CF93DF93CDB7DEB72A970FB6F89449
:1016F000DEBF0FBECDBF8E010F5F1F4F2AE0F80186
:1017000011922A95E9F72AE0A8010E94290D7E018D
:10171000FBE0EF0EF11CF80181918F0181110E9415
:101720000E060E151F05B9F72A960FB6F894DEBF00
:101730000FBECDBFDF91CF911F910F91FF90EF9022
:101740000895CF93DF93D82FC62F843010F080E018
:101750005BC06430E0F70E9414042FEF85EA9EE03E
:10176000215080409040E1F700C0000065E789E625
:101770000E948104883659F741E06BE689E60E94B1
:10178000A0044D2F440F440F440F6CE189E60E94E2
:10179000A0044C2F440F440F440F6BE189E60E94D4
:1017A000A00442E067E389E60E94A00440E062E012
:1017B0008EE10E94A00440E067E389E60E94A00455
:1017C0004EE164E389E60E94A00441E067E689E611
:1017D0000E94A0044DE164E289E60E94A0044EE963
:1017E00065E289E60E94A00443E066E289E60E9481
:1017F000A00446E967E289E60E94A00440E26AE6A6
:1018000089E60E94A00481E0DF91CF910895EF92D4
:10181000FF920F931F93CF93DF93CDB7DEB76597FA
:101820000FB6F894DEBF0FBECDBF8C01CE0101967E
:101830007C019EE4692F89E69D8B0E948104F7015B
:1018400081937F019D8991509A33A1F78F85988963
:10185000F801958384838F81988593878287898116
:101860009A81918B808B89899A89938382838985D8
:101870009A85918780878B819C81978786878B89C2
:101880009C89918380838B859C85978386838D81BA
:101890009E819587848781E065960FB6F894DEBFB8
:1018A0000FBECDBFDF91CF911F910F91FF90EF90B1
:1018B0000895EF92FF920F931F93CF93DF93CDB7CD
:1018C000DEB727970FB6F894DEBF0FBECDBF8C01F1
:1018D000CE0101967C0190E4692F89E69F830E94E6
:1018E0008104F70181937F019F8191509A33A1F781
:1018F00089819A81F801958384838B819C8193836C
:1019000082838D819E819183808381E027960FB6AB
:10191000F894DEBF0FBECDBFDF91CF911F910F9125
:10192000FF90EF900895EF92FF920F931F93CF9344
:10193000DF93CDB7DEB727970FB6F894DEBF0FBEA3
:10194000CDBF8C01CE0101967C0198E4692F89E618
:101950009F830E948104F70181937F019F819150B1
:101960009234A1F789819A81F801958384838B81D0
:101970009C81938382838D819E819183808381E08A
:1019800027960FB6F894DEBF0FBECDBFDF91CF9183
:101990001F910F91FF90EF900895EF92FF920F9398
:1019A0001F93CF93DF93CDB7DEB727970FB6F89489
:1019B000DEBF0FBECDBF8C01CE0101967C019EE43F
:1019C000692F89E69F830E948104F70181937F013B
:1019D0009F8191509834A1F789819A81F80195836C
:1019E00084838B819C81938382838D819E8191836B
:1019F000808381E027960FB6F894DEBF0FBECDBF7F
:101A0000DF91CF911F910F91FF90EF9008950E9469
:101A100028010E945501FDCFF8940C947B0DBB2743
:101A20004A3031F4992322F4BDE2909581959F4F7D
:101A30000C944C0DBB272A3051F4992342F4BDE29B
:101A400090958095709561957F4F8F4F9F4F0C9427
:101A50002A0DBB27FA01A62F621771058105910592
:101A6000330B30FB66F0AA27660F771F881F991F7C
:101A7000AA1FA21710F0A21B63953850A9F7A05D0A
:101A8000AA3308F0A95DA19336F7B111B193108282
:101A9000CA010C94650DBB27FB015527AA27880FA7
:101AA000991FAA1FA41710F0A41B83955051B9F7D2
:101AB000A05DAA3308F0A95DA193009779F7B11151
:101AC000B1931192CB010C94650DDC01FC01672FE1
:101AD00071917723E1F7329704C07C916D93708305
:101AE0006291AE17BF07C8F30895EE0FFF1F059070
:0A1AF000F491E02D0994F894FFCF63
:101AFA0001012411110001111100110000E100007F
:041B0A0000000800CF
:00000001FF
