:100000000C9404010C9421010C9421010C948C0299
:100010000C9421010C9421010C9421010C942101D8
:100020000C9421010C9421010C94B5090C94EF0956
:100030000C9421010C9421010C9421010C942101B8
:100040000C9421010C9421010C9421010C942101A8
:100050000C9445030C9421010C9421010C94210172
:100060000C9421010C9421010C9421010C94210188
:100070000C9421010C9421010C9421010C94210178
:100080000C9421010C9421010C9421010C94210168
:100090000C9421010C9421010C9421010C94210158
:1000A0000C9421010C9421010C9421015D09550946
:1000B0004D0945093D0935092D0925091D09150970
:1000C0000D090509FD08F508ED08E508DD08D50866
:1000D000CD08C508BD08B508AD08A5089D08950858
:1000E0008D0885087D0875086D0865085D08550848
:1000F0004D0845083D0835082D0825081D08150838
:100100000D080508FD07F507ED07E507DD07D5072D
:10011000CD07C507BD07B507AD07A5079D0795071F
:100120008D0785077D0775076D0765075D070A0D54
:100130000073746F7077617463685F6E6F773A09EC
:10014000000A0D000A0D000A0D00494D552064619A
:1001500074613A090000010000EC01120002000085
:10016000A9014300030000A5010401030904910152
:100170001202030904890106030309047F01080828
:1001800003340031003000000006034D003200004F
:100190000012034A002E0020004600690065006E30
:1001A0000065000000040309040902430002010085
:1001B000C032090400000102020100052400100100
:1001C0000524010101042402060524060001070597
:1001D000820310004009040100020A000000070524
:1001E00003024000000705840240000012010002E3
:1001F00002000010C0167A04000101020301000190
:10020000C11201803601813611241FBECFEFDAE022
:10021000DEBFCDBF11E0A0E0B1E0E4E3FCE102C04D
:1002200005900D92A431B107D9F721E0A4E1B1E026
:1002300001C01D92A735B207E1F70E94A40D0C94EE
:10024000A90D0C940000579881E0089589B1881F8A
:100250008827881F0895FF920F931F93CF93DF93F2
:100260000E94A002C82F0E94E602182F0E94D80107
:10027000D82F60910101809102010E94EC01F82EBB
:10028000809104010E946A03082F0E942301912F8C
:10029000990FDD0FDD0F9D0F9C0F28E0F29E900D52
:1002A000112420E1029F900D1124789420E2829F76
:1002B000900D1124892FDF91CF911F910F91FF9005
:1002C0000895EF920F931F930E94C302882309F4AD
:1002D00068C06A9A8EB194E089278EB980E291E075
:1002E0000E94E40189B1881F8827881F8093180124
:1002F000813089F56E9A769A80911901811102C038
:100300000E94CD020E941803AB01BC01409314016E
:10031000509315016093160170931701E090180136
:1003200002E110E020E231E080E00E94F90140911A
:100330001401509115016091160170911701E09020
:10034000180106E010E020E231E081E00E943C0468
:1003500080931F0122C0809119018130F1F40E9425
:100360001803AB01BC014093140150931501609335
:10037000160170931701E090180106E010E020E2EA
:1003800031E080E00E943C0480931F01882329F023
:100390006E9A76988AE00E94AB068091180180934D
:1003A00019011F910F91EF900895809149010895CF
:1003B00060E080E00E943E0C91E0811101C090E07D
:1003C00090934901892F08950E94A40C91E0811116
:1003D00001C090E0892F0895982F862F4091070142
:1003E000692F0E94590591E0811101C090E0892F89
:1003F0000895EF92F90181E080930000709301006D
:100400006093020050930300409304008081809326
:10041000050081818093060082818093070083819B
:1004200080930800848180930900858180930A006D
:10043000868180930B00878180930C008085809358
:100440000D00818580930E00828580930F00838547
:1004500080931000E09211006091070180E090E02D
:100460000E94CD0381E0EF900895609107010E9402
:10047000B10591E0811101C090E0892F0895CF92DC
:10048000DF92EF920F931F93CF93DF931F92CDB71D
:10049000DEB7CDB6DEB61982E12C01E010E09E0198
:1004A0002F5F3F4F40E050E0BA0180E00E94F90129
:1004B0002FEF31EE84E0215030408040E1F700C062
:1004C00000008091070190910801EDB7FEB7E81B8D
:1004D000F90B0FB6F894FEBF0FBEEDBF0DB71EB7F8
:1004E0000F5F1F4FC8010E943502882329F081E069
:1004F000F80190819D3009F080E081700FB6F8948A
:10050000DEBE0FBECDBE0F90DF91CF911F910F9138
:10051000EF90DF90CF9008951F920F920FB60F9239
:1005200011240F900FBE0F901F901895E1E6F0E098
:1005300080E88083108281E00895809150010895C1
:100540000E949602E1E9F0E080818B7F80838081C8
:100550008260808380818E7F808380818F7E808394
:10056000808188608083E0E9F0E080818D7F8083F6
:1005700080818E7F808384EF91E0909399008093B7
:10058000980081E0089598B391FB882780F991FD48
:10059000C19A089580914B010895F89410924C01EE
:1005A00010924D0110924E0110924F011092850051
:1005B000109284002091840030E08091850078942E
:1005C000382B81E0232B09F080E00895F8940E94F5
:1005D0009602E1E8F0E080818460808380818D7FF5
:1005E000808380818160808380818F7E8083808111
:1005F000877F8083E0E8F0E080818D7F8083808149
:100600008E7F8083EFE6F0E08081816080831092AE
:100610004C0110924D0110924E0110924F0181E059
:1006200080934B010E94CD02789480914B010895F4
:100630000F931F93609184002091850070E080E00B
:1006400090E0722B00914C0110914D0120914E01D0
:1006500030914F01980111270027600F711F821FF1
:10066000931F1F910F910895CF92DF92EF92FF9207
:100670006B017C010E9418036C197D098E099F098A
:10068000FF90EF90DF90CF9008951F920F920FB6DA
:100690000F9211248F939F93AF93BF9380914C013E
:1006A00090914D01A0914E01B0914F010196A11D75
:1006B000B11D80934C0190934D01A0934E01B093D6
:1006C0004F01BF91AF919F918F910F900FBE0F90EF
:1006D0001F901895882381F06E9A76980E94520692
:1006E0000E946B068823E1F30E946B0691E0811162
:1006F00001C090E0892F089580E00895CF93DF93A3
:100700000E943F02D82F0E949D02C82F0E94CA0259
:10071000DE5FCC2311F024E001C020E02D0F882300
:1007200011F098E001C090E0822F890F90E00E94C4
:10073000720B81E0DF91CF910895DF92EF92FF92EB
:100740000F931F93CF93DF938C01E62E8AE491E001
:100750000E943E0BE80100E010E0DD24D394FF246A
:10076000E7FCF0940E151F055CF489E00E94AB06CF
:10077000D822899199910E94720B0F5F1F4FF2CF7F
:1007800087E491E00E943E0B8D2DDF91CF911F9168
:100790000F91FF90EF90DF9008950F931F93CF93E9
:1007A000DF93EC018881811161C080E090E00E94BC
:1007B000720B89E00E94AB066981862F992787FD1D
:1007C0009095A92FB92F982F8827772766270A8118
:1007D000112707FD1095212F312F98011127002790
:1007E000600F711F821F931F0C81112707FD109549
:1007F000212F312F600F711F821F931F0B81112733
:1008000007FD1095212F312F322F212F102F002778
:10081000600F711F821F931F0E94D60B89E00E94F8
:10082000AB068E010B5F1F4F80910B0190910C0165
:10083000019798012C1B3D0B2817390754F4F80138
:10084000819191918F010E94720B89E00E94AB0609
:10085000EBCF8989992787FD90950E94720B89E0DB
:100860000E94AB0684E491E00E943E0B81E0DF91A0
:10087000CF911F910F910895AF92BF92CF92DF92C7
:10088000EF920F931F93CF93DF9300D000D000D04F
:10089000CDB7DEB7992787FD90952D833E83498399
:1008A0005A836B837C830E94720B89E00E94AB06A3
:1008B00049815A816B817C81CB01BA010E940A0C6B
:1008C00089E00E94AB062D81A22E3E81B32EC12C61
:1008D000D12CC016D10669F0F501819191915F018B
:1008E0000E94720B89E00E94AB06FFEFCF1ADF0A6D
:1008F000F0CF8E2D992787FD90950E94720B89E08D
:100900000E94AB0681E491E00E943E0B81E02696B6
:100910000FB6F894DEBF0FBECDBFDF91CF911F9110
:100920000F91EF90DF90CF90BF90AF90089580E04F
:100930000895CF92DF92EF92FF926B017C0181E3E9
:1009400091E00E943E0BC701B6010E940A0C8EE2A4
:1009500091E00E943E0B81E0FF90EF90DF90CF90FE
:100960000895589A599A5A9A8CE08093B800E9E60B
:10097000F0E080818062808380818F7E8083EA9A2C
:100980007894089584E88093BC008091BC0087FF30
:10099000FCCF8091BB00089584E98093BC0008954A
:1009A00020E030E08091BC0087FD06C02F5F3F4F04
:1009B000293E83E03807B1F781E0283E334009F44F
:1009C00080E008958093BB0084E88093BC000E947F
:1009D000D004882321F08091B900887F089580E0B9
:1009E00008951F93CF93DF931F92CDB7DEB7182FD3
:1009F00084EA8093BC0069830E94D00469818111DC
:100A000004C094E99093BC0014C0812F880F662322
:100A100031F08F5F0E94E204883451F404C00E94D8
:100A2000E204803229F484E98093BC0080E001C0B4
:100A300081E00F90DF91CF911F910895CF93DF93C5
:100A4000C82FD62F60E00E94F104882391F08D2FEB
:100A50000E94E204882369F084E98093BC0061E08D
:100A60008C2F0E94F104882321F0DF91CF910C9408
:100A7000C20480E0DF91CF910895CF93DF93D62F0A
:100A8000C42F60E00E94F104811102C080E00EC01A
:100A90008D2F0E94E2048823C9F38C2F0E94E20468
:100AA0008823A1F384E98093BC0081E0DF91CF919A
:100AB0000895CF93DF9300D01F92CDB7DEB74B835D
:100AC0006A8389830E94B10494EA9093BC0089816F
:100AD0006A814B819091BC0097FFFCCF90E5909389
:100AE000BB0094E89093BC009091BC0097FFFCCFB2
:100AF0009091B900987F903229F484E98093BC00EA
:100B000080E029C091E09093BB0094E89093BC00F2
:100B10009091BC0097FFFCCF8093BB0084E880934A
:100B2000BC008091BC0087FFFCCF6093BB0084E8D1
:100B30008093BC008091BC0087FFFCCF4093BB003A
:100B400084E88093BC008091BC0087FFFCCF84E9DF
:100B50008093BC0081E00F900F900F90DF91CF91B8
:100B6000089524EA2093BC002091BC0027FFFCCF0D
:100B700021E52093BB0024E82093BC002091BC0019
:100B800027FFFCCF2091B900287F2834A9F024EC5E
:100B90002093BC002091BC0027FFFCCF2091BB001C
:100BA00026130AC0FC0120E030E0772767FD70952E
:100BB0006150710944EC0EC084E98093BC0080E070
:100BC00008955091BC0057FFFCCF5091BB0051934A
:100BD0002F5F3F4F261737071CF44093BC00F1CF1F
:100BE00044E84093BC004091BC0047FFFCCF4091DB
:100BF000BB00FC01E20FF31F408384E98093BC003B
:100C000081E00895F89494EA9093BC009091BC0020
:100C100097FFFCCF90E59093BB0094E89093BC00C5
:100C20009091BC0097FFFCCF9091B900987F9032D3
:100C300031F484E98093BC00789480E0089593E0D7
:100C40009093BB0094E89093BC009091BC0097FFF8
:100C5000FCCF8093BB0084E88093BC008091BC00F3
:100C600087FFFCCFFB01552747FD509524E8CF01B6
:100C7000861B970B8417950754F481918093BB00D2
:100C80002093BC008091BC0087FFFCCFF0CF84E9AB
:100C90008093BC00789481E008958091E80080FF03
:100CA000FCCF089581E08093D70080EA8093D8003C
:100CB00082E189BD09B400FEFDCF80E98093D800B0
:100CC0001092E00010925401109251018CE0809338
:100CD000E200789408958091540108959FB7F894A4
:100CE00080915401882339F083E08093E90080915A
:100CF000E80085FD03C09FBF8FEF08958091F1004C
:100D00002091E80025FD03C02BE62093E8009FBF5B
:100D100008959FB7F89480915401882331F083E0BF
:100D20008093E9008091F20001C080E09FBF0895A8
:100D300080915401882371F08FB7F89493E09093D9
:100D4000E9002BE69091E80095FF03C02093E800AE
:100D5000F9CF8FBF089590915401992371F09FB7F7
:100D6000F89424E02093E90020915201222349F0D5
:100D70002091E80025FD03C09FBF8FEF08951092DA
:100D800052012091E400275E34E04091E80045FDE7
:100D900012C09FBF9091E400921304C081E0809341
:100DA0005201EBCF90915401992339F39FB7F894F6
:100DB0003093E900EACF8093F1008091E80085FD4F
:100DC00003C08AE38093E80085E0809353019FBFCE
:100DD00080E00895909154019923D1F09FB7F89441
:100DE00024E02093E9002091E80025FD02C09FBF88
:100DF0000FC08093F1008091E80085FD03C08AE375
:100E00008093E80085E0809353019FBF80E00895C0
:100E10008FEF0895EF92FF921F93CF93DF937C01A2
:100E2000CB0120915401222371F0AFB7F89424E054
:100E30002093E90020915201222349F02091E800FB
:100E400025FD03C0AFBF8FEF42C210925201B4E044
:100E5000C0E4DAE315E0009709F437C22091E4001A
:100E6000275E3091E80035FD12C0AFBF3091E4003D
:100E7000321304C081E080935201E5CF30915401D8
:100E8000332309F3AFB7F894B093E900EACF209188
:100E9000F2004C2F421B242F30E08217930708F4F6
:100EA000482F841B910950E04134510508F0FDC1E1
:100EB0004A5A5F4FFA010C94120EF70120812093D9
:100EC000F10097012F5F3F4F7901F70120812093B7
:100ED000F10097012F5F3F4F7901F70120812093A7
:100EE000F10097012F5F3F4F7901F7012081209397
:100EF000F10097012F5F3F4F7901F7012081209387
:100F0000F10097012F5F3F4F7901F7012081209376
:100F1000F10097012F5F3F4F7901F7012081209366
:100F2000F10097012F5F3F4F7901F7012081209356
:100F3000F10097012F5F3F4F7901F7012081209346
:100F4000F10097012F5F3F4F7901F7012081209336
:100F5000F10097012F5F3F4F7901F7012081209326
:100F6000F10097012F5F3F4F7901F7012081209316
:100F7000F10097012F5F3F4F7901F7012081209306
:100F8000F10097012F5F3F4F7901F70120812093F6
:100F9000F10097012F5F3F4F7901F70120812093E6
:100FA000F10097012F5F3F4F7901F70120812093D6
:100FB000F10097012F5F3F4F7901F70120812093C6
:100FC000F10097012F5F3F4F7901F70120812093B6
:100FD000F10097012F5F3F4F7901F70120812093A6
:100FE000F10097012F5F3F4F7901F7012081209396
:100FF000F10097012F5F3F4F7901F7012081209386
:10100000F10097012F5F3F4F7901F7012081209375
:10101000F10097012F5F3F4F7901F7012081209365
:10102000F10097012F5F3F4F7901F7012081209355
:10103000F10097012F5F3F4F7901F7012081209345
:10104000F10097012F5F3F4F7901F7012081209335
:10105000F10097012F5F3F4F7901F7012081209325
:10106000F10097012F5F3F4F7901F7012081209315
:10107000F10097012F5F3F4F7901F7012081209305
:10108000F10097012F5F3F4F7901F70120812093F5
:10109000F10097012F5F3F4F7901F70120812093E5
:1010A000F10097012F5F3F4F7901F70120812093D5
:1010B000F10097012F5F3F4F7901F70120812093C5
:1010C000F10097012F5F3F4F7901F70120812093B5
:1010D000F10097012F5F3F4F7901F70120812093A5
:1010E000F10097012F5F3F4F7901F7012081209395
:1010F000F10097012F5F3F4F7901F7012081209385
:10110000F10097012F5F3F4F7901F7012081209374
:10111000F10097012F5F3F4F7901F7012081209364
:10112000F10097012F5F3F4F7901F7012081209354
:10113000F10097012F5F3F4F7901F7012081209344
:10114000F10097012F5F3F4F7901F7012081209334
:10115000F10097012F5F3F4F7901F7012081209324
:10116000F10097012F5F3F4F7901F7012081209314
:10117000F10097012F5F3F4F7901F7012081209304
:10118000F10097012F5F3F4F7901F70120812093F4
:10119000F10097012F5F3F4F7901F70120812093E4
:1011A000F10097012F5F3F4F7901F70120812093D4
:1011B000F10097012F5F3F4F7901F70120812093C4
:1011C000F10097012F5F3F4F7901F70120812093B4
:1011D000F10097012F5F3F4F7901F70120812093A4
:1011E000F10097012F5F3F4F7901F7012081209394
:1011F000F10097012F5F3F4F7901F7012081209384
:10120000F10097012F5F3F4F7901F7012081209373
:10121000F10097012F5F3F4F7901F7012081209363
:10122000F10097012F5F3F4F7901F7012081209353
:10123000F10097012F5F3F4F7901F7012081209343
:10124000F10097012F5F3F4F7901F7012081209333
:10125000F10097012F5F3F4F7901F7012081209323
:10126000F10097012F5F3F4F7901F7012081209313
:10127000F10097012F5F3F4F7901F7012081209303
:10128000F10097012F5F3F4F7901F70120812093F3
:10129000F10097012F5F3F4F7901F70120812093E3
:1012A000F10097012F5F3F4F7901F70120812093D3
:1012B000F10097012F5F3F4F79012091E80025FF52
:1012C000D093E80010935301C6CDAFBF80E0DF910B
:1012D000CF911F91FF90EF9008958FB7F894909160
:1012E0005301992341F094E09093E9009AE390939D
:1012F000E800109253018FBF089580911101089565
:1013000080911201089580911301089580915101F7
:1013100008959FB7F89420915401222339F022E0D8
:101320002093E9003091E80035FD03C09FBF8FEFA7
:10133000089531EA3093F10030E23093F1001092D9
:10134000F1001092F1001092F1001092F100209340
:10135000F1001092F1008093F1001092F1008AE305
:101360008093E8009FBF80E008951F920F920FB610
:101370000F9211248F939F938091E1001092E100CE
:1013800083FF11C01092E90091E09093EB0010925E
:10139000EC0092E19093ED0098E09093F0001092B1
:1013A00054011092510182FF13C08091540188238F
:1013B00079F080915301882359F081508093530133
:1013C000811106C084E08093E9008AE38093E800FD
:1013D0009F918F910F900FBE0F901F9018951F92A5
:1013E0000F920FB60F921124EF92FF920F931F935B
:1013F0002F933F934F935F936F937F938F939F931D
:10140000AF93BF93EF93FF93CF93DF931F92CDB72B
:10141000DEB71092E9008091E80083FF14C190913B
:10142000F1008091F1003091F1002091F100E32E64
:10143000F12CF22A0091F1002091F10010E0122B22
:101440002091F1006091F10032EF3093E800863096
:1014500009F046C036E085E591E0FC0145915491E4
:101460004E155F0539F4FC013296459154914017B1
:10147000510721F00796315081F7E5C0FC01349601
:1014800045915491FC013696849130E0362B2F3FE4
:10149000310519F010F02FEF30E0281708F4822FF3
:1014A0003EEF9091E800292F2570D9F392FDCEC030
:1014B000982F813108F090E1FA01292F222331F091
:1014C00064916093F10021503196F8CF490F511D7E
:1014D000891B3093E8008111E4CF903111F3B6C03D
:1014E000853051F48EEF8093E8000E944D068E2DDA
:1014F00080688093E300AAC0893059F5911180C0BB
:10150000E092540110925101109253018EEF80939A
:10151000E80041E08EEF91E04093E9009C012F5FED
:101520003F4FFC0154915093EB00552359F0F901C2
:1015300024912093EC009C012D5F3F4F31968491C4
:101540008093ED004F5F453011F0C901E5CF8EE18A
:1015500075C0883051F4903809F052C00E944D0691
:10156000809154018093F10047C0813279F4913A1F
:1015700009F046C00E944D06EDE0F1E081918093B4
:10158000F10081E0E431F807C9F736C0803299F400
:101590009132B1F58091E80082FFFCCFEDE0F1E0FF
:1015A0008091F100819381E0E431F807C9F78BEF76
:1015B0008093E80021C0823241F4913209F043C0A7
:1015C000E09251010E944D0617C0811119C0998304
:1015D0000E944D069981923851F40093E900809160
:1015E000EB0085FB882780F91092E90001C080E0BC
:1015F0008093F1001092F1008EEF8093E80026C0F6
:10160000282F2D7F2130F9F49230E9F4EF28D9F416
:101610000F779FEF900F9430B0F49EEF9093E80017
:101620000093E900833079F089E18093EB0081E059
:1016300090E0002E01C0880F0A94EAF78093EA0038
:101640001092EA0003C081E28093EB000F90DF91DB
:10165000CF91FF91EF91BF91AF919F918F917F912A
:101660006F915F914F913F912F911F910F91FF903B
:10167000EF900F900FBE0F901F9018951F93CF9370
:10168000DF93EC01FE011491112351F01A3019F48B
:101690008DE00E94AB06812F0E94AB062196F2CF0F
:1016A000DF91CF911F9108958A3010F490E301C02B
:1016B00097E3890F0C94AB06CF93C82F82958F7058
:1016C0000E94540B8C2F8F70CF910C94540BCF939E
:1016D000C82F892F0E945C0B8C2FCF910C945C0B30
:1016E0000C945C0BEF92FF920F931F93CF93DF93B9
:1016F000CDB7DEB727970FB6F894DEBF0FBECDBFCC
:101700008E010F5F1F4F27E0F80111922A95E9F72C
:101710004AE0B8010E94AC0D7E01F8E0EF0EF11C2A
:10172000F80181918F0181110E94AB060E151F05F2
:10173000B9F727960FB6F894DEBF0FBECDBFDF9185
:10174000CF911F910F91FF90EF900895EF92FF922C
:101750000F931F93CF93DF9300D000D01F92CDB78C
:10176000DEB78E010F5F1F4F25E0F80111922A9519
:10177000E9F74AE0B8010E94E80D7E01F6E0EF0EBD
:10178000F11CF80181918F0181110E94AB060E15A9
:101790001F05B9F70F900F900F900F900F90DF91EA
:1017A000CF911F910F91FF90EF900895EF92FF92CC
:1017B0000F931F93CF93DF93CDB7DEB72B970FB661
:1017C000F894DEBF0FBECDBF8E010F5F1F4F2BE021
:1017D000F80111922A95E9F72AE0A8010E94B70DB5
:1017E0007E01FCE0EF0EF11CF80181918F01811167
:1017F0000E94AB060E151F05B9F72B960FB6F8948D
:10180000DEBF0FBECDBFDF91CF911F910F91FF9033
:10181000EF900895EF92FF920F931F93CF93DF9372
:10182000CDB7DEB72A970FB6F894DEBF0FBECDBF97
:101830008E010F5F1F4F2AE0F80111922A95E9F7F8
:101840002AE0A8010E94C60D7E01FBE0EF0EF11C0C
:10185000F80181918F0181110E94AB060E151F05C1
:10186000B9F72A960FB6F894DEBF0FBECDBFDF9151
:10187000CF911F910F91FF90EF900895CF93DF9339
:10188000D82FC62F843010F080E05BC06430E0F7C2
:101890000E94B1042FEF85EA9EE0215080409040E5
:1018A000E1F700C0000065E789E60E941E05883662
:1018B00059F741E06BE689E60E943D054D2F440F44
:1018C000440F440F6CE189E60E943D054C2F440F04
:1018D000440F440F6BE189E60E943D0542E067E357
:1018E00089E60E943D0540E062E08EE10E943D05F0
:1018F00040E067E389E60E943D054EE164E389E646
:101900000E943D0541E067E689E60E943D054DE104
:1019100064E289E60E943D054EE965E289E60E949F
:101920003D0543E066E289E60E943D0546E967E23F
:1019300089E60E943D0540E26AE689E60E943D058F
:1019400081E0DF91CF910895EF92FF920F931F9363
:10195000CF93DF93CDB7DEB765970FB6F894DEBFB0
:101960000FBECDBF8C01CE0101967C019EE4692F94
:1019700089E69D8B0E941E05F70181937F019D8959
:1019800091509A33A1F78F859889F80195838483C4
:101990008F8198859387828789819A81918B808BAB
:1019A00089899A899383828389859A85918780879B
:1019B0008B819C81978786878B899C899183808383
:1019C0008B859C85978386838D819E81958784876F
:1019D00081E065960FB6F894DEBF0FBECDBFDF91F4
:1019E000CF911F910F91FF90EF900895EF92FF928A
:1019F0000F931F93CF93DF93CDB7DEB727970FB623
:101A0000F894DEBF0FBECDBF8C01CE0101967C01E4
:101A100090E4692F89E69F830E941E05F701819358
:101A20007F019F8191509A33A1F789819A81F801B2
:101A3000958384838B819C81938382838D819E8116
:101A40009183808381E027960FB6F894DEBF0FBEA6
:101A5000CDBFDF91CF911F910F91FF90EF9008952F
:101A6000EF92FF920F931F93CF93DF93CDB7DEB723
:101A700027970FB6F894DEBF0FBECDBF8C01CE0105
:101A800001967C0198E4692F89E69F830E941E05D8
:101A9000F70181937F019F8191509234A1F7898151
:101AA0009A81F801958384838B819C8193838283BF
:101AB0008D819E819183808381E027960FB6F89473
:101AC000DEBF0FBECDBFDF91CF911F910F91FF9071
:101AD000EF900895EF92FF920F931F93CF93DF93B0
:101AE000CDB7DEB727970FB6F894DEBF0FBECDBFD8
:101AF0008C01CE0101967C019EE4692F89E69F83CB
:101B00000E941E05F70181937F019F8191509834B7
:101B1000A1F789819A81F801958384838B819C81C7
:101B2000938382838D819E819183808381E0279638
:101B30000FB6F894DEBF0FBECDBFDF91CF911F91DE
:101B40000F91FF90EF9008950E942B010E94610178
:101B5000FDCFF8940C94180EBB274A3031F499232A
:101B600022F4BDE2909581959F4F0C94E90DBB271F
:101B70002A3051F4992342F4BDE2909580957095F6
:101B800061957F4F8F4F9F4F0C94C70DBB27FA0174
:101B9000A62F6217710581059105330B30FB66F0A6
:101BA000AA27660F771F881F991FAA1FA21710F078
:101BB000A21B63953850A9F7A05DAA3308F0A95D70
:101BC000A19336F7B111B1931082CA010C94020EA1
:101BD000BB27FB015527AA27880F991FAA1FA41707
:101BE00010F0A41B83955051B9F7A05DAA3308F0FB
:101BF000A95DA193009779F7B111B1931192CB012F
:101C00000C94020EDC01FC01672F71917723E1F740
:101C1000329704C07C916D9370836291AE17BF07B9
:101C2000C8F30895EE0FFF1F0590F491E02D09947D
:041C3000F894FFCF56
:101C34000101241101011112001200120000E1003F
:041C44000000000894
:00000001FF
