:100000000C9403010C9420010C9420010C946A02BE
:100010000C9420010C9420010C9420010C942001DC
:100020000C9420010C9420010C9431090C946B0960
:100030000C9420010C9420010C9420010C942001BC
:100040000C9420010C9420010C9420010C942001AC
:100050000C9423030C9420010C9420010C94200197
:100060000C9420010C9420010C9420010C9420018C
:100070000C9420010C9420010C9420010C9420017C
:100080000C9420010C9420010C9420010C9420016C
:100090000C9420010C9420010C9420010C9420015C
:1000A0000C9420010C9420010C942001D908D10853
:1000B000C908C108B908B108A908A1089908910898
:1000C0008908810879087108690861085908510888
:1000D0004908410839083108290821081908110878
:1000E00009080108F907F107E907E107D907D1076E
:1000F000C907C107B907B107A907A1079907910760
:10010000890781077907710769076107590751074F
:10011000490741073907310729072107190711073F
:1001200009070107F906F106E906E106D9060A0DF5
:100130000073746F7077617463685F6E6F773A09EC
:10014000000A0D000A0D00494D5520646174613AA2
:10015000090000010000E9011200020000A60143AD
:1001600000030000A20104010309048E011202032E
:100170000904860106030309047C0108080334000E
:1001800031003000000006034D0032000000120371
:100190004A002E0020004600690065006E006500E0
:1001A00000000403090409024300020100C03209EF
:1001B00004000001020201000524001001052401D1
:1001C000010104240206052406000107058203102C
:1001D000004009040100020A000000070503024074
:1001E0000000070584024000001201000202000026
:1001F00010C0167A040001010203010001C11201BE
:1002000080360181360011241FBECFEFDAE0DEBF59
:10021000CDBF11E0A0E0B1E0ECE2FBE102C005904F
:100220000D92A231B107D9F721E0A2E1B1E001C0FE
:100230001D92A535B207E1F70E94200D0C94250D03
:100240000C940000579881E0089589B1881F882791
:10025000881F0895FF920F931F93CF93DF930E94FF
:100260007E02C82F0E94C402182F0E94B501D82F09
:1002700060910101809102010E94C901F82E8091D4
:1002800045010E944803082F0E942201912F990FD7
:10029000DD0FDD0F9D0F9C0F28E0F29E900D1124C5
:1002A00020E1029F900D1124789420E2829F900D0E
:1002B0001124892FDF91CF911F910F91FF90089505
:1002C000EF920F931F930E94A102882309F446C066
:1002D0006A9A8EB194E089278EB98DE191E00E94EF
:1002E000C10189B1881F8827881F809316019091CA
:1002F00017018130C1F4911102C00E94AB020E942B
:10030000F602AB01BC0140931201509313016093BC
:10031000140170931501E090160102E110E02DE147
:1003200031E080E015C09923A9F00E94F602AB01EC
:10033000BC01409312015093130160931401709318
:100340001501E090160102E110E02DE131E081E0BD
:100350000E94D60180911601809317011F910F9181
:10036000EF90089580914701089560E080E00E9439
:10037000BA0B91E0811101C090E090934701892F61
:1003800008950E94200C91E0811101C090E0892F16
:100390000895982F862F40910601692F0E94D50459
:1003A00091E0811101C090E0892F0895EF92F90149
:1003B000809300007093010060930200509303004B
:1003C0004093040080818093050081818093060022
:1003D00082818093070083818093080084818093C9
:1003E0000900858180930A00868180930B008781B4
:1003F00080930C00808580930D00818580930E0092
:10040000828580930F00838580931000E092110015
:100410004091060160E070E0809105010E947E0538
:1004200080E0EF900895609106010E942D0591E013
:10043000811101C090E0892F0895CF92DF92EF9251
:100440000F931F93CF93DF931F92CDB7DEB7CDB637
:10045000DEB61982E12C01E010E09E012F5F3F4FD4
:1004600040E050E0BA0180E00E94D6012FEF31EE6B
:1004700084E0215030408040E1F700C000008091CE
:10048000060190910701EDB7FEB7E81BF90B0FB617
:10049000F894FEBF0FBEEDBF0DB71EB70F5F1F4F25
:1004A000C8010E941302882329F081E0F80190819D
:1004B0009D3009F080E081700FB6F894DEBE0FBE6B
:1004C000CDBE0F90DF91CF911F910F91EF90DF90F4
:1004D000CF9008951F920F920FB60F9211240F9094
:1004E0000FBE0F901F901895E1E6F0E080E8808342
:1004F000108281E0089580914E0108950E94740257
:10050000E1E9F0E080818B7F80838081826080835D
:1005100080818E7F808380818F7E808380818860D0
:100520008083E0E9F0E080818D7F808380818E7F11
:10053000808384EF91E0909399008093980081E00C
:10054000089598B391FB882780F991FDC19A089589
:10055000809149010895F89410924A0110924B013C
:1005600010924C0110924D0110928500109284005F
:100570002091840030E0809185007894382B81E0D0
:10058000232B09F080E00895F8940E947402E1E8BA
:10059000F0E080818460808380818D7F8083808192
:1005A0008160808380818F7E80838081877F80834C
:1005B000E0E8F0E080818D7F808380818E7F808382
:1005C000EFE6F0E080818160808310924A01109212
:1005D0004B0110924C0110924D0181E08093490132
:1005E0000E94AB0278948091490108950F931F9364
:1005F000609184002091850070E080E090E0722B93
:1006000000914A0110914B0120914C0130914D0114
:10061000980111270027600F711F821F931F1F91E0
:100620000F910895CF92DF92EF92FF926B017C01C0
:100630000E94F6026C197D098E099F09FF90EF90C8
:10064000DF90CF9008951F920F920FB60F92112452
:100650008F939F93AF93BF9380914A0190914B01E9
:10066000A0914C01B0914D010196A11DB11D809347
:100670004A0190934B01A0934C01B0934D01BF915F
:10068000AF919F918F910F900FBE0F901F90189573
:10069000882381F06E9A76980E94CE050E94E70525
:1006A0008823E1F30E94E70591E0811101C090E009
:1006B000892F089580E00895CF93DF930E941D0253
:1006C000D82F0E947B02C82F0E94A802DE5FCC2395
:1006D00011F024E001C020E02D0F882311F098E0F4
:1006E00001C090E0822F890F90E00E94EE0A81E025
:1006F000DF91CF910895DF92EF92FF920F931F93B6
:10070000CF93DF938C01E62E87E491E00E94BA0A32
:10071000E80100E010E0DD24D394FF24E7FCF0942E
:100720000E151F055CF489E00E942706D8228991E6
:1007300099910E94EE0A0F5F1F4FF2CF84E491E07F
:100740000E94BA0A8D2DDF91CF911F910F91FF90DA
:10075000EF90DF9008950F931F93CF93DF93EC01F9
:10076000888181115AC06981862F992787FD9095CC
:10077000A92FB92F982F8827772766270A81112755
:1007800007FD1095212F312F980111270027600FA9
:10079000711F821F931F0C81112707FD1095212FB8
:1007A000312F600F711F821F931F0B81112707FDCF
:1007B0001095212F312F322F212F102F0027600F5E
:1007C000711F821F931F0E94520B89E00E9427060F
:1007D0008E010B5F1F4F80910801909109010197D5
:1007E00098012C1B3D0B2817390754F4F80181910F
:1007F00091918F010E94EE0A89E00E942706EBCFBB
:100800008989992787FD90950E94EE0A89E00E94C8
:10081000270681E491E00E94BA0A81E0DF91CF913E
:100820001F910F91089580E00895CF92DF92EF928B
:10083000FF926B017C0181E391E00E94BA0AC7013B
:10084000B6010E94860B8EE291E00E94BA0A81E016
:10085000FF90EF90DF90CF900895589A599A5A9A46
:100860008CE08093B800E9E6F0E0808180628083CC
:1008700080818F7E8083EA9A7894089584E88093BB
:10088000BC008091BC0087FFFCCF8091BB00089525
:1008900084E98093BC00089520E030E08091BC00A2
:1008A00087FD06C02F5F3F4F293E83E03807B1F731
:1008B00081E0283E334009F480E008958093BB0036
:1008C00084E88093BC000E944C04882321F080912E
:1008D000B900887F089580E008951F93CF93DF9338
:1008E0001F92CDB7DEB7182F84EA8093BC006983CE
:1008F0000E944C046981811104C094E99093BC006A
:1009000014C0812F880F662331F08F5F0E945E0430
:10091000883451F404C00E945E04803229F484E9D2
:100920008093BC0080E001C081E00F90DF91CF9107
:100930001F910895CF93DF93C82FD62F60E00E94B8
:100940006D04882391F08D2F0E945E04882369F046
:1009500084E98093BC0061E08C2F0E946D048823A1
:1009600021F0DF91CF910C943E0480E0DF91CF9194
:100970000895CF93DF93D62FC42F60E00E946D04BB
:10098000811102C080E00EC08D2F0E945E0488237A
:10099000C9F38C2F0E945E048823A1F384E980931D
:1009A000BC0081E0DF91CF910895CF93DF9300D019
:1009B0001F92CDB7DEB74B836A8389830E942D04D3
:1009C00094EA9093BC0089816A814B819091BC002C
:1009D00097FFFCCF90E59093BB0094E89093BC0008
:1009E0009091BC0097FFFCCF9091B900987F903216
:1009F00029F484E98093BC0080E029C091E09093C1
:100A0000BB0094E89093BC009091BC0097FFFCCF92
:100A10008093BB0084E88093BC008091BC0087FF7A
:100A2000FCCF6093BB0084E88093BC008091BC0045
:100A300087FFFCCF4093BB0084E88093BC0080918B
:100A4000BC0087FFFCCF84E98093BC0081E00F905D
:100A50000F900F90DF91CF91089524EA2093BC006E
:100A60002091BC0027FFFCCF21E52093BB0024E8A8
:100A70002093BC002091BC0027FFFCCF2091B9003F
:100A8000287F2834A9F024EC2093BC002091BC00DE
:100A900027FFFCCF2091BB0026130AC0FC0120E0F9
:100AA00030E0772767FD70956150710944EC0EC006
:100AB00084E98093BC0080E008955091BC0057FF0A
:100AC000FCCF5091BB0051932F5F3F4F2617370744
:100AD0001CF44093BC00F1CF44E84093BC0040912B
:100AE000BC0047FFFCCF4091BB00FC01E20FF31FAD
:100AF000408384E98093BC0081E00895F89494EAEF
:100B00009093BC009091BC0097FFFCCF90E5909330
:100B1000BB0094E89093BC009091BC0097FFFCCF81
:100B20009091B900987F903231F484E98093BC00B1
:100B3000789480E0089593E09093BB0094E89093BC
:100B4000BC009091BC0097FFFCCF8093BB0084E871
:100B50008093BC008091BC0087FFFCCFFB01552730
:100B600047FD509524E8CF01861B970B8417950706
:100B700054F481918093BB002093BC008091BC0011
:100B800087FFFCCFF0CF84E98093BC00789481E0AC
:100B900008958091E80080FFFCCF089581E0809364
:100BA000D70080EA8093D80082E189BD09B400FEB5
:100BB000FDCF80E98093D8001092E000109252019E
:100BC00010924F018CE08093E20078940895809118
:100BD000520108959FB7F89480915201882339F00B
:100BE00083E08093E9008091E80085FD03C09FBF0A
:100BF0008FEF08958091F1002091E80025FD03C05A
:100C00002BE62093E8009FBF08959FB7F89480914A
:100C10005201882331F083E08093E9008091F20053
:100C200001C080E09FBF089580915201882371F038
:100C30008FB7F89493E09093E9002BE69091E80049
:100C400095FF03C02093E800F9CF8FBF08959091DE
:100C50005201992371F09FB7F89424E02093E900A2
:100C600020915001222349F02091E80025FD03C086
:100C70009FBF8FEF0895109250012091E400275EEE
:100C800034E04091E80045FD12C09FBF9091E40020
:100C9000921304C081E080935001EBCF90915201F8
:100CA000992339F39FB7F8943093E900EACF809302
:100CB000F1008091E80085FD03C08AE38093E8009D
:100CC00085E0809351019FBF80E00895909152018B
:100CD0009923D1F09FB7F89424E02093E900209164
:100CE000E80025FD02C09FBF0FC08093F1008091F6
:100CF000E80085FD03C08AE38093E80085E08093E7
:100D000051019FBF80E008958FEF0895EF92FF9209
:100D10001F93CF93DF937C01CB01209152012223BB
:100D200071F0AFB7F89424E02093E90020915001CE
:100D3000222349F02091E80025FD03C0AFBF8FEFCB
:100D400042C210925001B4E0C0E4DAE315E000972B
:100D500009F437C22091E400275E3091E80035FDA8
:100D600012C0AFBF3091E400321304C081E0809321
:100D70005001E5CF30915201332309F3AFB7F89416
:100D8000B093E900EACF2091F2004C2F421B242FB0
:100D900030E08217930708F4482F841B910950E034
:100DA0004134510508F0FDC14A5A5F4FFA010C94D5
:100DB0008E0DF70120812093F10097012F5F3F4FA7
:100DC0007901F70120812093F10097012F5F3F4FB8
:100DD0007901F70120812093F10097012F5F3F4FA8
:100DE0007901F70120812093F10097012F5F3F4F98
:100DF0007901F70120812093F10097012F5F3F4F88
:100E00007901F70120812093F10097012F5F3F4F77
:100E10007901F70120812093F10097012F5F3F4F67
:100E20007901F70120812093F10097012F5F3F4F57
:100E30007901F70120812093F10097012F5F3F4F47
:100E40007901F70120812093F10097012F5F3F4F37
:100E50007901F70120812093F10097012F5F3F4F27
:100E60007901F70120812093F10097012F5F3F4F17
:100E70007901F70120812093F10097012F5F3F4F07
:100E80007901F70120812093F10097012F5F3F4FF7
:100E90007901F70120812093F10097012F5F3F4FE7
:100EA0007901F70120812093F10097012F5F3F4FD7
:100EB0007901F70120812093F10097012F5F3F4FC7
:100EC0007901F70120812093F10097012F5F3F4FB7
:100ED0007901F70120812093F10097012F5F3F4FA7
:100EE0007901F70120812093F10097012F5F3F4F97
:100EF0007901F70120812093F10097012F5F3F4F87
:100F00007901F70120812093F10097012F5F3F4F76
:100F10007901F70120812093F10097012F5F3F4F66
:100F20007901F70120812093F10097012F5F3F4F56
:100F30007901F70120812093F10097012F5F3F4F46
:100F40007901F70120812093F10097012F5F3F4F36
:100F50007901F70120812093F10097012F5F3F4F26
:100F60007901F70120812093F10097012F5F3F4F16
:100F70007901F70120812093F10097012F5F3F4F06
:100F80007901F70120812093F10097012F5F3F4FF6
:100F90007901F70120812093F10097012F5F3F4FE6
:100FA0007901F70120812093F10097012F5F3F4FD6
:100FB0007901F70120812093F10097012F5F3F4FC6
:100FC0007901F70120812093F10097012F5F3F4FB6
:100FD0007901F70120812093F10097012F5F3F4FA6
:100FE0007901F70120812093F10097012F5F3F4F96
:100FF0007901F70120812093F10097012F5F3F4F86
:101000007901F70120812093F10097012F5F3F4F75
:101010007901F70120812093F10097012F5F3F4F65
:101020007901F70120812093F10097012F5F3F4F55
:101030007901F70120812093F10097012F5F3F4F45
:101040007901F70120812093F10097012F5F3F4F35
:101050007901F70120812093F10097012F5F3F4F25
:101060007901F70120812093F10097012F5F3F4F15
:101070007901F70120812093F10097012F5F3F4F05
:101080007901F70120812093F10097012F5F3F4FF5
:101090007901F70120812093F10097012F5F3F4FE5
:1010A0007901F70120812093F10097012F5F3F4FD5
:1010B0007901F70120812093F10097012F5F3F4FC5
:1010C0007901F70120812093F10097012F5F3F4FB5
:1010D0007901F70120812093F10097012F5F3F4FA5
:1010E0007901F70120812093F10097012F5F3F4F95
:1010F0007901F70120812093F10097012F5F3F4F85
:101100007901F70120812093F10097012F5F3F4F74
:101110007901F70120812093F10097012F5F3F4F64
:101120007901F70120812093F10097012F5F3F4F54
:101130007901F70120812093F10097012F5F3F4F44
:101140007901F70120812093F10097012F5F3F4F34
:101150007901F70120812093F10097012F5F3F4F24
:101160007901F70120812093F10097012F5F3F4F14
:101170007901F70120812093F10097012F5F3F4F04
:101180007901F70120812093F10097012F5F3F4FF4
:101190007901F70120812093F10097012F5F3F4FE4
:1011A0007901F70120812093F10097012F5F3F4FD4
:1011B00079012091E80025FFD093E80010935101B8
:1011C000C6CDAFBF80E0DF91CF911F91FF90EF9030
:1011D00008958FB7F89490915101992341F094E0CC
:1011E0009093E9009AE39093E800109251018FBF29
:1011F000089580910E01089580910F0108958091C6
:101200001001089580914F0108959FB7F89420919F
:101210005201222339F022E02093E9003091E800C6
:1012200035FD03C09FBF8FEF089531EA3093F10081
:1012300030E23093F1001092F1001092F100109220
:10124000F1001092F1002093F1001092F1008093D0
:10125000F1001092F1008AE38093E8009FBF80E0E4
:1012600008951F920F920FB60F9211248F939F93A0
:101270008091E1001092E10083FF11C01092E9001B
:1012800091E09093EB001092EC0092E19093ED00CE
:1012900098E09093F0001092520110924F0182FF5B
:1012A00013C080915201882379F0809151018823E5
:1012B00059F0815080935101811106C084E08093E0
:1012C000E9008AE38093E8009F918F910F900FBE11
:1012D0000F901F9018951F920F920FB60F92112426
:1012E000EF92FF920F931F932F933F934F935F9330
:1012F0006F937F938F939F93AF93BF93EF93FF93DE
:10130000CF93DF931F92CDB7DEB71092E9008091A3
:10131000E80083FF14C19091F1008091F1003091B9
:10132000F1002091F100E32EF12CF22A0091F1005E
:101330002091F10010E0122B2091F1006091F1005A
:1013400032EF3093E800863009F046C036E082E59F
:1013500091E0FC01459154914E155F0539F4FC0173
:101360003296459154914017510721F0079631501C
:1013700081F7E5C0FC01349645915491FC01369605
:10138000849130E0362B2F3F310519F010F02FEF0C
:1013900030E0281708F4822F3EEF9091E800292FC3
:1013A0002570D9F392FDCEC0982F813108F090E1DD
:1013B000FA01292F222331F064916093F10021502A
:1013C0003196F8CF490F511D891B3093E8008111E8
:1013D000E4CF903111F3B6C0853051F48EEF809395
:1013E000E8000E94C9058E2D80688093E300AAC0A2
:1013F000893059F5911180C0E092520110924F014D
:10140000109251018EEF8093E80041E08BEF91E064
:101410004093E9009C012F5F3F4FFC015491509392
:10142000EB00552359F0F90124912093EC009C0125
:101430002D5F3F4F319684918093ED004F5F453093
:1014400011F0C901E5CF8EE175C0883051F49038B4
:1014500009F052C00E94C905809152018093F100A9
:1014600047C0813279F4913A09F046C00E94C9051B
:10147000EAE0F1E081918093F10081E0E131F80749
:10148000C9F736C0803299F49132B1F58091E80005
:1014900082FFFCCFEAE0F1E08091F100819381E0EE
:1014A000E131F807C9F78BEF8093E80021C0823261
:1014B00041F4913209F043C0E0924F010E94C90506
:1014C00017C0811119C099830E94C905998192386A
:1014D00051F40093E9008091EB0085FB882780F9A7
:1014E0001092E90001C080E08093F1001092F100B9
:1014F0008EEF8093E80026C0282F2D7F2130F9F44D
:101500009230E9F4EF28D9F40F779FEF900F9430E1
:10151000B0F49EEF9093E8000093E900833079F0F7
:1015200089E18093EB0081E090E0002E01C0880FFC
:101530000A94EAF78093EA001092EA0003C081E27D
:101540008093EB000F90DF91CF91FF91EF91BF91CE
:10155000AF919F918F917F916F915F914F913F914B
:101560002F911F910F91FF90EF900F900FBE0F9052
:101570001F9018951F93CF93DF93EC01FE011491F8
:10158000112351F01A3019F48DE00E942706812FA3
:101590000E9427062196F2CFDF91CF911F910895E7
:1015A0008A3010F490E301C097E3890F0C9427066A
:1015B000CF93C82F82958F700E94D00A8C2F8F7086
:1015C000CF910C94D00ACF93C82F892F0E94D80AAC
:1015D0008C2FCF910C94D80A0C94D80AEF92FF92DA
:1015E0000F931F93CF93DF93CDB7DEB727970FB637
:1015F000F894DEBF0FBECDBF8E010F5F1F4F27E0F7
:10160000F80111922A95E9F74AE0B8010E94280DE5
:101610007E01F8E0EF0EF11CF80181918F0181113C
:101620000E9427060E151F05B9F727960FB6F894E6
:10163000DEBF0FBECDBFDF91CF911F910F91FF9005
:10164000EF900895EF92FF920F931F93CF93DF9344
:1016500000D000D01F92CDB7DEB78E010F5F1F4FB5
:1016600025E0F80111922A95E9F74AE0B8010E94B5
:10167000640D7E01F6E0EF0EF11CF80181918F01FF
:1016800081110E9427060E151F05B9F70F900F90C4
:101690000F900F900F90DF91CF911F910F91FF90BE
:1016A000EF900895EF92FF920F931F93CF93DF93E4
:1016B000CDB7DEB72B970FB6F894DEBF0FBECDBF08
:1016C0008E010F5F1F4F2BE0F80111922A95E9F769
:1016D0002AE0A8010E94330D7E01FCE0EF0EF11C10
:1016E000F80181918F0181110E9427060E151F05B7
:1016F000B9F72B960FB6F894DEBF0FBECDBFDF91C2
:10170000CF911F910F91FF90EF900895EF92FF926C
:101710000F931F93CF93DF93CDB7DEB72A970FB602
:10172000F894DEBF0FBECDBF8E010F5F1F4F2AE0C2
:10173000F80111922A95E9F72AE0A8010E94420DCA
:101740007E01FBE0EF0EF11CF80181918F01811108
:101750000E9427060E151F05B9F72A960FB6F894B2
:10176000DEBF0FBECDBFDF91CF911F910F91FF90D4
:10177000EF900895CF93DF93D82FC62F843010F0C9
:1017800080E05BC06430E0F70E942D042FEF85EA13
:101790009EE0215080409040E1F700C0000065E7E6
:1017A00089E60E949A04883659F741E06BE689E69B
:1017B0000E94B9044D2F440F440F440F6CE189E699
:1017C0000E94B9044C2F440F440F440F6BE189E68B
:1017D0000E94B90442E067E389E60E94B90440E050
:1017E00062E08EE10E94B90440E067E389E60E946E
:1017F000B9044EE164E389E60E94B90441E067E67A
:1018000089E60E94B9044DE164E289E60E94B904C8
:101810004EE965E289E60E94B90443E066E289E6A2
:101820000E94B90446E967E289E60E94B90440E2F1
:101830006AE689E60E94B90481E0DF91CF910895BC
:10184000EF92FF920F931F93CF93DF93CDB7DEB745
:1018500065970FB6F894DEBF0FBECDBF8C01CE01E9
:1018600001967C019EE4692F89E69D8B0E949A0473
:10187000F70181937F019D8991509A33A1F78F855C
:101880009889F801958384838F81988593878287CF
:1018900089819A81918B808B89899A8993838283AC
:1018A00089859A85918780878B819C819787868798
:1018B0008B899C89918380838B859C859783868384
:1018C0008D819E819587848781E065960FB6F89417
:1018D000DEBF0FBECDBFDF91CF911F910F91FF9063
:1018E000EF900895EF92FF920F931F93CF93DF93A2
:1018F000CDB7DEB727970FB6F894DEBF0FBECDBFCA
:101900008C01CE0101967C0190E4692F89E69F83CA
:101910000E949A04F70181937F019F8191509A332D
:10192000A1F789819A81F801958384838B819C81B9
:10193000938382838D819E819183808381E027962A
:101940000FB6F894DEBF0FBECDBFDF91CF911F91D0
:101950000F91FF90EF900895EF92FF920F931F93D6
:10196000CF93DF93CDB7DEB727970FB6F894DEBFDE
:101970000FBECDBF8C01CE0101967C0198E4692F8A
:1019800089E69F830E949A04F70181937F019F81DA
:1019900091509234A1F789819A81F80195838483CB
:1019A0008B819C81938382838D819E8191838083AF
:1019B00081E027960FB6F894DEBF0FBECDBFDF9152
:1019C000CF911F910F91FF90EF900895EF92FF92AA
:1019D0000F931F93CF93DF93CDB7DEB727970FB643
:1019E000F894DEBF0FBECDBF8C01CE0101967C0105
:1019F0009EE4692F89E69F830E949A04F7018193F0
:101A00007F019F8191509834A1F789819A81F801D3
:101A1000958384838B819C81938382838D819E8136
:101A20009183808381E027960FB6F894DEBF0FBEC6
:101A3000CDBFDF91CF911F910F91FF90EF9008954F
:101A40000E942A010E946001FDCFF8940C94940D2D
:101A5000BB274A3031F4992322F4BDE29095819559
:101A60009F4F0C94650DBB272A3051F4992342F403
:101A7000BDE290958095709561957F4F8F4F9F4FF8
:101A80000C94430DBB27FA01A62F6217710581053F
:101A90009105330B30FB66F0AA27660F771F881F6E
:101AA000991FAA1FA21710F0A21B63953850A9F71F
:101AB000A05DAA3308F0A95DA19336F7B111B193E7
:101AC0001082CA010C947E0DBB27FB015527AA2763
:101AD000880F991FAA1FA41710F0A41B83955051BB
:101AE000B9F7A05DAA3308F0A95DA193009779F733
:101AF000B111B1931192CB010C947E0DDC01FC016C
:101B0000672F71917723E1F7329704C07C916D9331
:101B100070836291AE17BF07C8F30895EE0FFF1FE1
:0C1B20000590F491E02D0994F894FFCF9B
:101B2C000101241101111200120000E1000000005B
:021B3C0008009F
:00000001FF
