:100000000C9403010C9420010C9420010C947202B6
:100010000C9420010C9420010C9420010C942001DC
:100020000C9420010C9420010C947A080C94B408D0
:100030000C9420010C9420010C9420010C942001BC
:100040000C9420010C9420010C9420010C942001AC
:100050000C943B030C9420010C9420010C9420017F
:100060000C9420010C9420010C9420010C9420018C
:100070000C9420010C9420010C9420010C9420017C
:100080000C9420010C9420010C9420010C9420016C
:100090000C9420010C9420010C9420010C9420015C
:1000A0000C9420010C9420010C9420011B081808CA
:1000B000150812080F080C080908060803080008AC
:1000C000FD07FA07F707F407F107EE07EB07E80764
:1000D000E507E207DF07DC07D907D607D307D00714
:1000E000CD07CA07C707C407C107BE07BB07B807C4
:1000F000B507B207AF07AC07A907A607A307A00774
:100100009D079A079707940791078E078B07880723
:10011000850782077F077C077907760773077007D3
:100120006D076A076707640761075E075B070A00D8
:1001300073746F7077617463685F6E6F773A0900EC
:100140000A000A000A0D00494D5520646174613AA5
:10015000090000010000860112000200009801431E
:1001600000030000DB010401030904DF01120203A4
:100170000904F3010603030904FB01080001C1128D
:100180000180360181361201000202000010C01603
:100190007A0400010102030109024300020100C0C8
:1001A00032090400000102020100052400100105CB
:1001B000240101010424020605240600010705822A
:1001C0000310004009040100020A000000070503B3
:1001D00002400000070584024000000403090412E5
:1001E000034A002E0020004600690065006E00658D
:1001F00000000006034D0032000000080334003107
:1002000000300000000011241FBECFEFDAE0DEBF97
:10021000CDBF11E0A0E0B1E0EEEDFAE102C0059043
:100220000D92A431B107D9F711E0A4E1B1E001C00A
:100230001D92A735B107E1F70E94B6010C94940C0A
:100240000C940000579881E0089589B1881F882791
:10025000881F0895DF92EF92FF920F931F930E94E1
:100260008602182F0E94D002F82E0E94BE01082F8D
:1002700080910201609103010E94D201D82E8091E9
:1002800000010E946003E82E0E942201FF0C000F73
:10029000000FF00EF10EDD0CDD0CDD0CFD0CE29418
:1002A00090EFE922FE0C78948295880F807E8F0D66
:1002B0001F910F91FF90EF90DF900895EF920F93B1
:1002C0001F930E94A902882309F44CC06A9A8EB138
:1002D00094E089278EB98BE291E00E94CA0189B12E
:1002E000881F8827881F809344018130D1F46E9A3B
:1002F000769A0E940203AB01BC01409345015093E2
:100300004601609347017093480181E02BE231E0A0
:1003100006E010E0E09044010E94480480933D0113
:100320001DC00E940203AB01BC01409345015093E4
:100330004601609347017093480180E02BE231E071
:1003400006E010E0E09044010E94480480933D01E3
:1003500080914301813011F46E9A76988091440126
:10036000809343011F910F91EF9008950E942A01FD
:100370000E945E01FDCF80914901089560E080E018
:100380000E942E0B91E0811101C090E090934901F1
:10039000892F08950E94940B91E0811101C090E093
:1003A000892F0895982F862F40910701692F0E9469
:1003B000590591E0811101C090E0892F0895EF92D5
:1003C000F90181E0809300007093010060930200C6
:1003D0005093030040930400808180930500818145
:1003E00080930600828180930700838180930800B8
:1003F000848180930900858180930A00868180939F
:100400000B00878180930C00808580930D0081858F
:1004100080930E00828580930F0083858093100067
:10042000E09211006091070180E090E00E94D20309
:1004300081E0EF900895609107010E94B10591E07D
:10044000811101C090E0892F0895CF92DF92EF9241
:100450000F931F93CF93DF931F92CDB7DEB7CDB627
:10046000DEB61982E12C01E010E09E012F5F3F4FC4
:1004700040E050E0BA0180E00E94DF012FEF31EE52
:1004800084E0215030408040E1F700C000008091BE
:10049000070190910801EDB7FEB7E81BF90B0FB605
:1004A000F894FEBF0FBEEDBF0DB71EB70F5F1F4F15
:1004B000C8010E941B02882329F081E0F801908185
:1004C0009D3009F080E081700FB6F894DEBE0FBE5B
:1004D000CDBE0F90DF91CF911F910F91EF90DF90E4
:1004E000CF9008951F920F920FB60F9211240F9084
:1004F0000FBE0F901F901895E1E6F0E080E8808332
:10050000108281E008958091500108950E947C023C
:10051000E1E9F0E080818B7F80838081826080834D
:1005200080818E7F808380818F7E808380818860C0
:100530008083E0E9F0E080818D7F808380818E7F01
:10054000808384EF91E0909399008093980081E0FC
:10055000089581E0C19902C080E00895C19A08958C
:1005600080914F010895F89410924B0110924C0124
:1005700010924D0110924E0110928500109284004D
:100580002091840030E0409185007894942F80E0A1
:10059000282B392B81E02115310509F080E00895E1
:1005A000F8940E947C02E1E8F0E08081846080831E
:1005B00080818D7F808380818160808380818F7E38
:1005C00080838081877F8083E0E8F0E080818D7F79
:1005D000808380818E7F8083EFE6F0E08081816080
:1005E000808310924B0110924C0110924D01109299
:1005F0004E0181E080934F010E94B3027894809174
:100600004F010895809184002091850030E040E002
:1006100050E0542F432F322F222790E0A0E0B0E08B
:10062000282B392B4A2B5B2B80914B0190914C014D
:10063000A0914D01B0914E01DC0199278827280F28
:10064000391F4A1F5B1FB901CA010895EF92FF923B
:100650000F931F937B018C010E9402039B01AC014D
:100660002E193F09400B510BB901CA011F910F917F
:10067000FF90EF9008951F920F920FB60F921124E2
:100680008F939F93AF93BF9380914B0190914C01B7
:10069000A0914D01B0914E010196A11DB11D809315
:1006A0004B0190934C01A0934D01B0934E01BF912B
:1006B000AF919F918F910F900FBE0F901F90189543
:1006C000882369F06E9A76980E9452060E946B0603
:1006D0008823E1F30E946B0691E0882309F490E0FF
:1006E000892F08950F931F930E942502082F0E94BF
:1006F0008302182F0E94B0020E5F112311F094E0C4
:1007000001C090E0090F882311F098E001C090E04B
:10071000802F890F90E00E94550A81E01F910F9170
:100720000895DF92EF92FF920F931F93CF93DF9381
:10073000182F092FE62E87E491E00E941D0AC801B8
:10074000092F182FC0E0D0E0DD24D394FF24E7FC6C
:10075000F09418C089E00E94AB06282F332727FDAC
:1007600030958D2D90E028233923DD24D394211555
:10077000310509F4DD24F801819191918F010E94E6
:10078000550A2196CE15DF052CF384E491E00E94F2
:100790001D0A8D2DDF91CF911F910F91FF90EF904A
:1007A000DF900895EF92FF920F931F93CF93DF9303
:1007B000EC018881882309F063C080E090E00E940A
:1007C000550A89E00E94AB066981772767FD70951D
:1007D000872F972F962F8827772766272A813327F9
:1007E00027FD3095432F532FA90133272227620F6E
:1007F000731F841F951F2C81332727FD3095432FAE
:10080000532F620F731F841F951F2B81332727FDE2
:100810003095432F532F542F432F322F2227620F0F
:10082000731F841F951F0E94C00A89E00E94AB06B7
:1008300085E0E82EF12CEC0EFD1E05E010E00BC06B
:10084000F701819191917F010E94550A89E00E94F0
:10085000AB060E5F1F4F8091090190910A0101972D
:10086000081719076CF38989992787FD90950E94CD
:10087000550A89E00E94AB0682E491E00E941D0ABD
:1008800081E0DF91CF911F910F91FF90EF9008953C
:10089000AF92BF92CF92DF92EF920F931F93DF93AD
:1008A000CF9300D0CDB7DEB75A016B01992787FDF2
:1008B000909529833A830E94550A89E00E94AB06ED
:1008C000C601B5010E94F70A89E00E94AB062981A2
:1008D0003A81A22EB32ECC24DD240CC0F5018191E7
:1008E00091915F010E94550A89E00E94AB0608942D
:1008F000C11CD11CC016D10688F38E2D992787FD07
:1009000090950E94550A89E00E94AB0680E491E030
:100910000E941D0A81E00F900F90CF91DF911F91EF
:100920000F91EF90DF90CF90BF90AF90089580E04F
:100930000895EF92FF920F931F937B018C0180E348
:1009400091E00E941D0AC801B7010E94F70A8EE2D9
:1009500091E00E941D0A81E01F910F91FF90EF909E
:100960000895589A599A5A9A8CE08093B800E9E60B
:10097000F0E080818062808380818F7E8083EA9A2C
:100980007894089584E88093BC008091BC0087FF30
:10099000FCCF8091BB00089584E98093BC0008954A
:1009A00020E030E08091BC0087FD06C02F5F3F4F04
:1009B000293E83E03807B1F781E0283E334009F44F
:1009C00080E008958093BB0084E88093BC000E947F
:1009D000D004882321F08091B900887F089580E0B9
:1009E00008951F93CF93DF931F92CDB7DEB7182FD3
:1009F00084EA8093BC0069830E94D00469818111DC
:100A000004C094E99093BC0014C0812F880F662322
:100A100031F08F5F0E94E204883451F404C00E94D8
:100A2000E204803229F484E98093BC0080E001C0B4
:100A300081E00F90DF91CF911F910895CF93DF93C5
:100A4000C82FD62F60E00E94F104882391F08D2FEB
:100A50000E94E204882369F084E98093BC0061E08D
:100A60008C2F0E94F104882321F0DF91CF910C9408
:100A7000C20480E0DF91CF910895CF93DF93D62F0A
:100A8000C42F60E00E94F104811102C080E00EC01A
:100A90008D2F0E94E2048823C9F38C2F0E94E20468
:100AA0008823A1F384E98093BC0081E0DF91CF919A
:100AB0000895CF93DF9300D01F92CDB7DEB74B835D
:100AC0006A8389830E94B10494EA9093BC0089816F
:100AD0006A814B819091BC0097FFFCCF90E5909389
:100AE000BB0094E89093BC009091BC0097FFFCCFB2
:100AF0009091B900987F903229F484E98093BC00EA
:100B000080E029C091E09093BB0094E89093BC00F2
:100B10009091BC0097FFFCCF8093BB0084E880934A
:100B2000BC008091BC0087FFFCCF6093BB0084E8D1
:100B30008093BC008091BC0087FFFCCF4093BB003A
:100B400084E88093BC008091BC0087FFFCCF84E9DF
:100B50008093BC0081E00F900F900F90DF91CF91B8
:100B6000089524EA2093BC002091BC0027FFFCCF0D
:100B700021E52093BB0024E82093BC002091BC0019
:100B800027FFFCCF2091B900287F2834A9F024EC5E
:100B90002093BC002091BC0027FFFCCF2091BB001C
:100BA00026130AC0FC0120E030E0772767FD70952E
:100BB0006150710944EC0EC084E98093BC0080E070
:100BC00008955091BC0057FFFCCF5091BB0051934A
:100BD0002F5F3F4F261737071CF44093BC00F1CF1F
:100BE00044E84093BC004091BC0047FFFCCF4091DB
:100BF000BB00FC01E20FF31F408384E98093BC003B
:100C000081E00895F89494EA9093BC009091BC0020
:100C100097FFFCCF90E59093BB0094E89093BC00C5
:100C20009091BC0097FFFCCF9091B900987F9032D3
:100C300031F484E98093BC00789480E0089593E0D7
:100C40009093BB0094E89093BC009091BC0097FFF8
:100C5000FCCF8093BB0084E88093BC008091BC00F3
:100C600087FFFCCFFB01552747FD509524E8CF01B6
:100C7000861B970B8417950754F481918093BB00D2
:100C80002093BC008091BC0087FFFCCFF0CF84E9AB
:100C90008093BC00789481E008958091E80080FF03
:100CA000FCCF089581E08093D70080EA8093D8003C
:100CB00082E189BD09B400FEFDCF80E98093D800B0
:100CC0001092E00010925101109252018CE080933A
:100CD000E200789408958091510108959FB7F894A7
:100CE00080915101882339F083E08093E90080915D
:100CF000E80085FD03C09FBF8FEF08958091F1004C
:100D00002091E80025FD03C02BE62093E8009FBF5B
:100D100008959FB7F89480915101882331F083E0C2
:100D20008093E9008091F20001C080E09FBF0895A8
:100D300080915101882371F08FB7F89493E09093DC
:100D4000E9009BE602C09093E8002091E80025FDB1
:100D5000FACF8FBF0895909151019923D1F19FB798
:100D6000F89424E02093E90020915401222341F0DB
:100D70002091E80025FD02C09FBF2BC010925401B6
:100D80002091E400275E34E04091E80045FD12C068
:100D90009FBF9091E400921721F481E08093540169
:100DA00018C0909151019923B1F09FB7F8943093F6
:100DB000E900EACF8093F1008091E80085FD03C04F
:100DC0008AE38093E80085E0809353019FBF80E031
:100DD00008958FEF08958FEF089590915101992311
:100DE000D9F09FB7F89424E02093E9002091E8001F
:100DF00025FD03C09FBF8FEF08958093F100809180
:100E0000E80085FD03C08AE38093E80085E08093D5
:100E100053019FBF80E008958FEF08951F93DC0179
:100E200080915101882309F41AC12FB7F89484E006
:100E30008093E90080915401882309F405C18091D1
:100E4000E80085FD02C02FBF0AC110925401FCC00A
:100E50008091E400875E9091E80095FD13C02FBF5C
:100E60009091E400981721F481E080935401F7C039
:100E700090915101992309F4F2C02FB7F89410937F
:100E8000E900E9CF8091F200E52FE81B8E2F90E07A
:100E90006817790708F4E62F6E1B7109F0E0E1345A
:100EA000F10508F0C5C0EA5AFF4FEE0FFF1F05908D
:100EB000F491E02D09948D918093F1008D918093B0
:100EC000F1008D918093F1008D918093F1008D91CF
:100ED0008093F1008D918093F1008D918093F100CA
:100EE0008D918093F1008D918093F1008D9180938D
:100EF000F1008D918093F1008D918093F1008D919F
:100F00008093F1008D918093F1008D918093F10099
:100F10008D918093F1008D918093F1008D9180935C
:100F2000F1008D918093F1008D918093F1008D916E
:100F30008093F1008D918093F1008D918093F10069
:100F40008D918093F1008D918093F1008D9180932C
:100F5000F1008D918093F1008D918093F1008D913E
:100F60008093F1008D918093F1008D918093F10039
:100F70008D918093F1008D918093F1008D918093FC
:100F8000F1008D918093F1008D918093F1008D910E
:100F90008093F1008D918093F1008D918093F10009
:100FA0008D918093F1008D918093F1008D918093CC
:100FB000F1008D918093F1008D918093F1008D91DE
:100FC0008093F1008D918093F1008D918093F100D9
:100FD0008D918093F1008D918093F1008D9180939C
:100FE000F1008D918093F1008D918093F1008D91AE
:100FF0008093F1008D918093F1008D918093F100A9
:101000008D918093F1008D918093F1008D9180936B
:10101000F1008D918093F1008D918093F1008D917D
:101020008093F1008D918093F1008D918093F10078
:101030008D918093F1008091E80085FD02C040937E
:10104000E8003093530104C014E050E44AE335E073
:101050006115710509F0FCCE2FBF80E001C08FEF54
:101060001F9108958FB7F89490915301992341F0FF
:1010700094E09093E9009AE39093E8001092530172
:101080008FBF0895809111010895809112010895F4
:101090008091130108958091520108959FB7F894AB
:1010A00020915101222339F022E02093E900309170
:1010B000E80035FD03C09FBF8FEF089531EA3093FC
:1010C000F10030E23093F1001092F1001092F10043
:1010D0001092F1001092F1002093F1001092F100B3
:1010E0008093F1001092F1008AE38093E8009FBFA3
:1010F00080E008951F920F920FB60F9211248F93E4
:101100009F938091E1001092E10083FF11C0109243
:10111000E90091E09093EB001092EC0092E1909343
:10112000ED0098E09093F00010925101109252015E
:1011300082FF13C080915101882379F0809153017F
:10114000882359F0815080935301882331F484E03F
:101150008093E9008AE38093E8009F918F910F903C
:101160000FBE0F901F9018951F920F920FB60F92FF
:101170001124EF92FF920F931F932F933F934F935E
:101180005F936F937F938F939F93AF93BF93EF93EF
:10119000FF93DF93CF930F92CDB7DEB71092E900A4
:1011A0008091E80083FF2EC12091F1003091F10081
:1011B0008091F100E82EFF244091F100942F80E00F
:1011C000E82AF92A0091F10010E04091F100942FF3
:1011D00080E0082B192B6091F100A091F10082EFC3
:1011E0008093E800363009F059C089E591E09C0110
:1011F00025503040FC013797459154914E155F05BD
:10120000F9F4F9014591549140175107C9F42E5F43
:101210003F4FF901859194912E5F3F4FF901249141
:10122000462F50E07A2F60E0462B572B4F3F510559
:1012300019F010F04FEF50E0421750F4242F08C07F
:101240000796295F3F4FF1E083389F0799F6DAC090
:10125000AEEF4091E80050E0BA0165707070611522
:101260007105B9F342FDD1C0322F213108F030E1D0
:10127000AC01632F07C0FA014F5F5F4FE491E09329
:10128000F10061506623B9F7830F911D231BA093D2
:10129000E8002223F1F63031E1F2B7C0353051F4E5
:1012A0008EEF8093E8000E944D068E2D806880931B
:1012B000E300ABC0393051F5222309F0A3C0E0921E
:1012C000510110925201109253018EEF8093E80069
:1012D00041E08CE791E04093E900FC010196E49144
:1012E000E093EB00EE2369F09C012F5F3F4FFC0180
:1012F00084918093EC00C9010196F9012491209317
:10130000ED004F5F453039F78EE177C0383051F44A
:10131000203809F077C00E944D06809151018093DA
:10132000F10048C0313279F4213A09F06BC00E94D3
:101330004D06EDE0F1E081918093F10021E0E43190
:10134000F207C9F737C03032A1F4213209F05AC090
:101350008091E80082FFFCCFEDE0F1E08091F100A8
:10136000819331E0E431F307C9F78BEF8093E80014
:1013700021C0323241F4213209F044C0E0925201DE
:101380000E944D0617C03323C9F429830E944D06DD
:101390002981223851F40093E9009091EB0081E01B
:1013A00095FF80E01092E90001C080E08093F10099
:1013B0001092F1008EEF8093E80027C0313011F0D9
:1013C000333001F52230F1F4E114F104D9F40F7750
:1013D000802F81508430B0F48EEF8093E80000932A
:1013E000E900333079F089E18093EB0081E090E00F
:1013F00002C0880F991F0A95E2F78093EA001092C5
:10140000EA0003C081E28093EB000F90CF91DF915F
:10141000FF91EF91BF91AF919F918F917F916F91CC
:101420005F914F913F912F911F910F91FF90EF90FE
:101430000F900FBE0F901F9018951F93CF93DF93BF
:10144000EC01FE0121961491112349F01A3019F490
:101450008DE00E94AB06812F0E94AB06F2CFDF9198
:10146000CF911F9108958A3010F490E301C097E363
:10147000890F0E94AB0608951F93182F82958F70D5
:101480000E94330A812F8F700E94330A1F910895A2
:101490001F93182F892F0E943C0A812F0E943C0A1B
:1014A0001F9108950E943C0A0895EF92FF920F93B6
:1014B0001F93DF93CF93CDB7DEB727970FB6F8947E
:1014C000DEBF0FBECDBF8E010F5F1F4F27E0F801BB
:1014D00011922A95E9F7B8014AE050E00E94970C72
:1014E00088E0E82EF12CEC0EFD1EF80181918F01B1
:1014F000882311F00E94AB060E151F05B1F7279641
:101500000FB6F894DEBF0FBECDBFCF91DF911F9114
:101510000F91FF90EF900895EF92FF920F931F931A
:10152000DF93CF9300D000D000D0CDB7DEB78E01CF
:101530000F5F1F4F26E0F80111922A95E9F7B801D5
:101540004AE050E00E94110D96E0E92EF12CEC0EDD
:10155000FD1EF80181918F01882311F00E94AB06D6
:101560000E151F05B1F726960FB6F894DEBF0FBE15
:10157000CDBFCF91DF911F910F91FF90EF90089514
:10158000EF92FF920F931F93DF93CF93CDB7DEB708
:101590002B970FB6F894DEBF0FBECDBF8E010F5F45
:1015A0001F4F2BE0F80111922A95E9F7A8012AE0D4
:1015B00030E00E94B80C2CE0E22EF12CEC0EFD1E67
:1015C000F80181918F01882311F00E94AB060E155E
:1015D0001F05B1F72B960FB6F894DEBF0FBECDBF37
:1015E000CF91DF911F910F91FF90EF900895EF92AF
:1015F000FF920F931F93DF93CF93CDB7DEB72B9757
:101600000FB6F894DEBF0FBECDBF8E010F5F1F4F28
:101610002BE0F80111922A95E9F7A8012AE030E0C1
:101620000E94EC0C3BE0E32EF12CEC0EFD1EF801C9
:1016300081918F01882311F00E94AB060E151F05C2
:10164000B1F72B960FB6F894DEBF0FBECDBFCF918A
:10165000DF911F910F91FF90EF900895CF93DF934B
:10166000D82FC62F843010F080E05BC06430E0F7E4
:101670000E94B1042FEF85EA9EE021508040904007
:10168000E1F700C0000065E789E60E941E05883684
:1016900059F741E06BE689E60E943D054D2F440F66
:1016A000440F440F6CE189E60E943D054C2F440F26
:1016B000440F440F6BE189E60E943D0542E067E379
:1016C00089E60E943D0540E062E08EE10E943D0512
:1016D00040E067E389E60E943D054EE164E389E668
:1016E0000E943D0541E067E689E60E943D054DE127
:1016F00064E289E60E943D054EE965E289E60E94C2
:101700003D0543E066E289E60E943D0546E967E261
:1017100089E60E943D0540E26AE689E60E943D05B1
:1017200081E0DF91CF910895EF92FF920F931F9385
:10173000CF93DF93CDB7DEB765970FB6F894DEBFD2
:101740000FBECDBF8C01CE0101967C019EE4692FB6
:1017500089E69D8B0E941E05F70181937F019D897B
:1017600091509A33A1F78F859889F80195838483E6
:101770008F8198859387828789819A81918B808BCD
:1017800089899A899383828389859A8591878087BD
:101790008B819C81978786878B899C8991838083A5
:1017A0008B859C85978386838D819E819587848791
:1017B00081E065960FB6F894DEBF0FBECDBFDF9116
:1017C000CF911F910F91FF90EF900895EF92FF92AC
:1017D0000F931F93CF93DF93CDB7DEB727970FB645
:1017E000F894DEBF0FBECDBF8C01CE0101967C0107
:1017F00090E4692F89E69F830E941E05F70181937B
:101800007F019F8191509A33A1F789819A81F801D4
:10181000958384838B819C81938382838D819E8138
:101820009183808381E027960FB6F894DEBF0FBEC8
:10183000CDBFDF91CF911F910F91FF90EF90089551
:10184000EF92FF920F931F93CF93DF93CDB7DEB745
:1018500027970FB6F894DEBF0FBECDBF8C01CE0127
:1018600001967C0198E4692F89E69F830E941E05FA
:10187000F70181937F019F8191509234A1F7898173
:101880009A81F801958384838B819C8193838283E1
:101890008D819E819183808381E027960FB6F89495
:1018A000DEBF0FBECDBFDF91CF911F910F91FF9093
:1018B000EF900895EF92FF920F931F93CF93DF93D2
:1018C000CDB7DEB727970FB6F894DEBF0FBECDBFFA
:1018D0008C01CE0101967C019EE4692F89E69F83ED
:1018E0000E941E05F70181937F019F8191509834DA
:1018F000A1F789819A81F801958384838B819C81EA
:10190000938382838D819E819183808381E027965A
:101910000FB6F894DEBF0FBECDBFDF91CF911F9100
:101920000F91FF90EF900895F8940C946D0DFB01CA
:101930009F01E8944230C4F04532B4F44A3029F4AF
:1019400097FB1EF4909581959F4F642F77270E94F7
:10195000370D805D8A330CF0895D8193CB01009750
:10196000A1F716F45DE251931082C9010C94270D82
:10197000FA01CF93FF93EF93223044F1253234F5EF
:10198000C22FE894CA3049F497FB3EF490958095B5
:10199000709561957F4F8F4F9F4F2C2F3327442792
:1019A0005527FF93EF930E944B0DEF91FF91605DE0
:1019B0006A330CF0695D6193B901CA0160507040EF
:1019C0008040904051F716F4CDE2C19310828F9180
:1019D0009F91CF910C94270DFA01CF93FF93EF9332
:1019E0002230CCF02532BCF4C22F2C2F33274427D1
:1019F0005527FF93EF930E944B0DEF91FF91605D90
:101A00006A330CF0695D6193B901CA01605070409E
:101A10008040904051F710828F919F91CF910C940C
:101A2000270DFB019F01423074F0453264F4642FAE
:101A300077270E94370D805D8A330CF0895D819392
:101A4000CB010097A1F71082C9010C94270DDC018E
:101A5000FC01672F71917723E1F7329704C07C91E5
:101A60006D9370836291AE17BF07C8F30895AA1BE8
:101A7000BB1B51E107C0AA1FBB1FA617B70710F079
:101A8000A61BB70B881F991F5A95A9F780959095AB
:101A9000BC01CD010895A1E21A2EAA1BBB1BFD01BA
:101AA0000DC0AA1FBB1FEE1FFF1FA217B307E4073D
:101AB000F50720F0A21BB30BE40BF50B661F771F95
:101AC000881F991F1A9469F7609570958095909575
:0E1AD0009B01AC01BD01CF010895F894FFCF3A
:101ADE000111240101011112001200120000E10097
:041AEE0000000008EC
:00000001FF
