:100000000C9408010C9425010C9425010C946D01AD
:100010000C9425010C9425010C9425010C942501C8
:100020000C9425010C9425010C94AB080C94E50864
:100030000C9425010C9425010C9425010C942501A8
:100040000C9425010C9425010C9425010C94250198
:100050000C9480020C9425010C9425010C9425012C
:100060000C9425010C9425010C9425010C94250178
:100070000C9425010C9425010C9425010C94250168
:100080000C9425010C9425010C9425010C94250158
:100090000C9425010C9425010C9425010C94250148
:1000A0000C9425010C9425010C94250153084B0850
:1000B00043083B0833082B0823081B0813080B08C8
:1000C0000308FB07F307EB07E307DB07D307CB07BF
:1000D000C307BB07B307AB07A3079B0793078B07B0
:1000E00083077B0773076B0763075B0753074B07A0
:1000F00043073B0733072B0723071B0713070B0790
:100100000307FB06F306EB06E306DB06D306CB0686
:10011000C306BB06B306AB06A3069B0693068B0677
:1001200083067B0673066B0663065B0653060A0DA1
:100130000073746F7077617463685F6E6F773A09EC
:10014000000A0D003A090054696D653A09000A0D6C
:1001500000494D5520646174613A090000010000B6
:10016000F3011200020000B0014300030000AC01E3
:100170000401030904980112020309049001060313
:100180000309048601080803340031003000000030
:1001900006034D003200000012034A002E0020002A
:1001A0004600690065006E00650000000403090454
:1001B00009024300020100C03209040000010202EA
:1001C0000100052400100105240101010424020698
:1001D0000524060001070582031000400904010000
:1001E000020A000000070503024000000705840220
:1001F0004000001201000202000010C0167A040044
:1002000001010203010001C11201803601813600A3
:1002100011241FBECFEFDAE0DEBFCDBF11E0A0E0BA
:10022000B1E0E0E2FAE102C005900D92AA31B10717
:10023000D9F721E0AAE1B1E001C01D92A534B207CF
:10024000E1F70E949A0C0C949F0C0C9400001F93F1
:10025000CF93DF930E94DB01C82F0E942102D82F89
:1002600060910101809103010E947C01182F81E0BF
:100270000E94A5029D2F990F28E0129F900D112436
:100280009C0F789420E1829F900D1124892FDF919B
:10029000CF911F9108950E94FE018823E9F06A9A88
:1002A0008EB194E089278EB9809135018823A1F021
:1002B000109235010E945302603472448F409105C0
:1002C00010F00E9408028FE191E00E948B0161E131
:1002D0008FE191E00C94080308951F920F920FB6DE
:1002E0000F9211248F9381E0809335018F910F90AD
:1002F0000FBE0F901F901895982F862F40910801E0
:10030000692F0E944F0491E0811101C090E0892F74
:10031000089580E00895609108010E94A70491E08B
:10032000811101C090E0892F0895EF92FF920F9301
:100330001F93CF93DF93CDB7DEB7EDB6FEB62FEFA9
:1003400031EE84E0215030408040E1F700C00000F1
:100350008091080190910901EDB7FEB7E81BF90BF8
:100360000FB6F894FEBF0FBEEDBF0DB71EB70F5FFF
:100370001F4FC8010E948B01882329F081E0F801FA
:1003800090819D3009F080E081700FB6F894FEBE38
:100390000FBEEDBEDF91CF911F910F91FF90EF90B7
:1003A0000895E1E6F0E080E88083108281E008951E
:1003B00080913C0108950E94D101E1E9F0E0808143
:1003C0008B7F808380818260808380818E7F808329
:1003D00080818F7E8083808188608083E0E9F0E087
:1003E00080818D7F808380818E7F808384EF91E008
:1003F000909399008093980081E0089598B391FBC1
:10040000882780F991FDC19A089580913701089558
:10041000F894109238011092390110923A0110921A
:100420003B0110928500109284002091840030E0FE
:10043000809185007894382B81E0232B09F080E0AF
:100440000895F8940E94D101E1E8F0E08081846091
:10045000808380818D7F80838081816080838081A3
:100460008F7E80838081877F8083E0E8F0E08081D9
:100470008D7F808380818E7F8083EFE6F0E08081B6
:1004800081608083109238011092390110923A01F4
:1004900010923B0181E0809337010E94080278941A
:1004A0008091370108950F931F93609184002091EC
:1004B000850070E080E090E0722B0091380110918F
:1004C000390120913A0130913B0198011127002711
:1004D000600F711F821F931F1F910F910895CF927C
:1004E000DF92EF92FF926B017C010E9453026C1924
:1004F0007D098E099F09FF90EF90DF90CF900895BE
:100500001F920F920FB60F9211248F939F93AF9368
:10051000BF938091380190913901A0913A01B09137
:100520003B010196A11DB11D8093380190933901C3
:10053000A0933A01B0933B01BF91AF919F918F91EE
:100540000F900FBE0F901F901895882381F06E9A20
:1005500076980E9448050E9461058823E1F30E9475
:10056000610591E0811101C090E0892F089580E03C
:100570000895CF93DF930E949501D82F0E94D80150
:10058000C82F0E940502DE5FCC2311F024E001C0D9
:1005900020E02D0F882311F098E001C090E0822F19
:1005A000890F90E00E94680A81E0DF91CF91089561
:1005B000DF92EF92FF920F931F93CF93DF938C0103
:1005C000E62E81E591E00E94340AE80100E010E0A7
:1005D000DD24D394FF24E7FCF0940E151F055CF492
:1005E00089E00E94A105D822899199910E94680A08
:1005F0000F5F1F4FF2CF8EE491E00E94340A8D2DE1
:10060000DF91CF911F910F91FF90EF90DF900895B0
:10061000CF92DF92EF92FF920F931F93CF93DF93CE
:10062000EC01888181116FC0C980DD24C7FCD094A2
:10063000ED2CFD2CFC2CEE24DD24CC248A81992782
:1006400087FD9095A92FB92FDC0199278827C80E1F
:10065000D91EEA1EFB1E8C81992787FD9095A92F34
:10066000B92FC80ED91EEA1EFB1E8B81992787FD64
:100670009095A92FB92FBA2FA92F982F8827C80E88
:10068000D91EEA1EFB1E87E491E00E94340AC701CE
:10069000B6010E94CC0A89E00E94A10589E00E946F
:1006A000A10505E010E080910A0190910B01081767
:1006B000190714F50B30110519F489E00E94A10502
:1006C000F8013597F7FD3196F595E795ED5EFE4F0C
:1006D00080810E94A10584E491E00E94340AFE0119
:1006E000E00FF11F808191810E94680A89E00E94D9
:1006F000A1050E5F1F4FD7CF89E00E94A10581E4BD
:1007000091E00E94340A81E0DF91CF911F910F9117
:10071000FF90EF90DF90CF90089580E00895CF9202
:10072000DF92EF92FF926B017C0181E391E00E94E6
:10073000340AC701B6010E94000B8EE291E00E94CC
:10074000340A81E0FF90EF90DF90CF900895589A9F
:10075000599A5A9A8CE08093B800E9E6F0E08081DB
:100760008062808380818F7E8083EA9A7894089566
:1007700084E88093BC008091BC0087FFFCCF80910F
:10078000BB00089584E98093BC00089520E030E028
:100790008091BC0087FD06C02F5F3F4F293E83E05C
:1007A0003807B1F781E0283E334009F480E008952E
:1007B0008093BB0084E88093BC000E94C60388231A
:1007C00021F08091B900887F089580E008951F93FB
:1007D000CF93DF931F92CDB7DEB7182F84EA8093B3
:1007E000BC0069830E94C6036981811104C094E939
:1007F0009093BC0014C0812F880F662331F08F5F67
:100800000E94D803883451F404C00E94D803803277
:1008100029F484E98093BC0080E001C081E00F905E
:10082000DF91CF911F910895CF93DF93C82FD62FDB
:1008300060E00E94E703882391F08D2F0E94D80387
:10084000882369F084E98093BC0061E08C2F0E94CA
:10085000E703882321F0DF91CF910C94B80380E067
:10086000DF91CF910895CF93DF93D62FC42F60E00F
:100870000E94E703811102C080E00EC08D2F0E940C
:10088000D8038823C9F38C2F0E94D8038823A1F3AF
:1008900084E98093BC0081E0DF91CF910895CF93EC
:1008A000DF9300D01F92CDB7DEB74B836A83898375
:1008B0000E94A70394EA9093BC0089816A814B81CE
:1008C0009091BC0097FFFCCF90E59093BB0094E81B
:1008D0009093BC009091BC0097FFFCCF9091B90021
:1008E000987F903229F484E98093BC0080E029C08D
:1008F00091E09093BB0094E89093BC009091BC0071
:1009000097FFFCCF8093BB0084E88093BC0080916C
:10091000BC0087FFFCCF6093BB0084E88093BC00E1
:100920008091BC0087FFFCCF4093BB0084E880939C
:10093000BC008091BC0087FFFCCF84E98093BC00A1
:1009400081E00F900F900F90DF91CF91089524EAEE
:100950002093BC002091BC0027FFFCCF21E5209311
:10096000BB0024E82093BC002091BC0027FFFCCFF3
:100970002091B900287F2834A9F024EC2093BC00F2
:100980002091BC0027FFFCCF2091BB0026130AC09A
:10099000FC0120E030E0772767FD70956150710918
:1009A00044EC0EC084E98093BC0080E0089550912F
:1009B000BC0057FFFCCF5091BB0051932F5F3F4FBE
:1009C000261737071CF44093BC00F1CF44E840934E
:1009D000BC004091BC0047FFFCCF4091BB00FC0134
:1009E000E20FF31F408384E98093BC0081E0089507
:1009F000F89494EA9093BC009091BC0097FFFCCFD0
:100A000090E59093BB0094E89093BC009091BC005B
:100A100097FFFCCF9091B900987F903231F484E930
:100A20008093BC00789480E0089593E09093BB009D
:100A300094E89093BC009091BC0097FFFCCF80930A
:100A4000BB0084E88093BC008091BC0087FFFCCF92
:100A5000FB01552747FD509524E8CF01861B970BD6
:100A60008417950754F481918093BB002093BC00B8
:100A70008091BC0087FFFCCFF0CF84E98093BC005D
:100A8000789481E008958091E80080FFFCCF08957C
:100A900081E08093D70080EA8093D80082E189BD0D
:100AA00009B400FEFDCF80E98093D8001092E000E9
:100AB0001092400110923D018CE08093E200789406
:100AC00008958091400108959FB7F8948091400166
:100AD000882339F083E08093E9008091E80085FD68
:100AE00003C09FBF8FEF08958091F1002091E8002F
:100AF00025FD03C02BE62093E8009FBF08959FB714
:100B0000F89480914001882331F083E08093E900DC
:100B10008091F20001C080E09FBF08958091400164
:100B2000882371F08FB7F89493E09093E9002BE657
:100B30009091E80095FF03C02093E800F9CF8FBFA4
:100B4000089590914001992371F09FB7F89424E0A3
:100B50002093E90020913E01222349F02091E800F2
:100B600025FD03C09FBF8FEF089510923E01209195
:100B7000E400275E34E04091E80045FD12C09FBFCD
:100B80009091E400921304C081E080933E01EBCF8A
:100B900090914001992339F39FB7F8943093E9007D
:100BA000EACF8093F1008091E80085FD03C08AE3DD
:100BB0008093E80085E080933F019FBF80E0089527
:100BC000909140019923D1F09FB7F89424E02093AD
:100BD000E9002091E80025FD02C09FBF0FC080936F
:100BE000F1008091E80085FD03C08AE38093E8006E
:100BF00085E080933F019FBF80E008958FEF0895C7
:100C0000EF92FF921F93CF93DF937C01CB01209152
:100C10004001222371F0AFB7F89424E02093E9005B
:100C200020913E01222349F02091E80025FD03C0D8
:100C3000AFBF8FEF42C210923E01B4E0C0E4DAE3EE
:100C400015E0009709F437C22091E400275E309147
:100C5000E80035FD12C0AFBF3091E400321304C08C
:100C600081E080933E01E5CF30914001332309F3C9
:100C7000AFB7F894B093E900EACF2091F2004C2F7F
:100C8000421B242F30E08217930708F4482F841B5F
:100C9000910950E04134510508F0FDC14A5A5F4FB7
:100CA000FA010C94080DF70120812093F1009701BF
:100CB0002F5F3F4F7901F70120812093F1009701C9
:100CC0002F5F3F4F7901F70120812093F1009701B9
:100CD0002F5F3F4F7901F70120812093F1009701A9
:100CE0002F5F3F4F7901F70120812093F100970199
:100CF0002F5F3F4F7901F70120812093F100970189
:100D00002F5F3F4F7901F70120812093F100970178
:100D10002F5F3F4F7901F70120812093F100970168
:100D20002F5F3F4F7901F70120812093F100970158
:100D30002F5F3F4F7901F70120812093F100970148
:100D40002F5F3F4F7901F70120812093F100970138
:100D50002F5F3F4F7901F70120812093F100970128
:100D60002F5F3F4F7901F70120812093F100970118
:100D70002F5F3F4F7901F70120812093F100970108
:100D80002F5F3F4F7901F70120812093F1009701F8
:100D90002F5F3F4F7901F70120812093F1009701E8
:100DA0002F5F3F4F7901F70120812093F1009701D8
:100DB0002F5F3F4F7901F70120812093F1009701C8
:100DC0002F5F3F4F7901F70120812093F1009701B8
:100DD0002F5F3F4F7901F70120812093F1009701A8
:100DE0002F5F3F4F7901F70120812093F100970198
:100DF0002F5F3F4F7901F70120812093F100970188
:100E00002F5F3F4F7901F70120812093F100970177
:100E10002F5F3F4F7901F70120812093F100970167
:100E20002F5F3F4F7901F70120812093F100970157
:100E30002F5F3F4F7901F70120812093F100970147
:100E40002F5F3F4F7901F70120812093F100970137
:100E50002F5F3F4F7901F70120812093F100970127
:100E60002F5F3F4F7901F70120812093F100970117
:100E70002F5F3F4F7901F70120812093F100970107
:100E80002F5F3F4F7901F70120812093F1009701F7
:100E90002F5F3F4F7901F70120812093F1009701E7
:100EA0002F5F3F4F7901F70120812093F1009701D7
:100EB0002F5F3F4F7901F70120812093F1009701C7
:100EC0002F5F3F4F7901F70120812093F1009701B7
:100ED0002F5F3F4F7901F70120812093F1009701A7
:100EE0002F5F3F4F7901F70120812093F100970197
:100EF0002F5F3F4F7901F70120812093F100970187
:100F00002F5F3F4F7901F70120812093F100970176
:100F10002F5F3F4F7901F70120812093F100970166
:100F20002F5F3F4F7901F70120812093F100970156
:100F30002F5F3F4F7901F70120812093F100970146
:100F40002F5F3F4F7901F70120812093F100970136
:100F50002F5F3F4F7901F70120812093F100970126
:100F60002F5F3F4F7901F70120812093F100970116
:100F70002F5F3F4F7901F70120812093F100970106
:100F80002F5F3F4F7901F70120812093F1009701F6
:100F90002F5F3F4F7901F70120812093F1009701E6
:100FA0002F5F3F4F7901F70120812093F1009701D6
:100FB0002F5F3F4F7901F70120812093F1009701C6
:100FC0002F5F3F4F7901F70120812093F1009701B6
:100FD0002F5F3F4F7901F70120812093F1009701A6
:100FE0002F5F3F4F7901F70120812093F100970196
:100FF0002F5F3F4F7901F70120812093F100970186
:101000002F5F3F4F7901F70120812093F100970175
:101010002F5F3F4F7901F70120812093F100970165
:101020002F5F3F4F7901F70120812093F100970155
:101030002F5F3F4F7901F70120812093F100970145
:101040002F5F3F4F7901F70120812093F100970135
:101050002F5F3F4F7901F70120812093F100970125
:101060002F5F3F4F7901F70120812093F100970115
:101070002F5F3F4F7901F70120812093F100970105
:101080002F5F3F4F7901F70120812093F1009701F5
:101090002F5F3F4F7901F70120812093F1009701E5
:1010A0002F5F3F4F79012091E80025FFD093E800A2
:1010B00010933F01C6CDAFBF80E0DF91CF911F916C
:1010C000FF90EF9008958FB7F89490913F01992386
:1010D00041F094E09093E9009AE39093E800109235
:1010E0003F018FBF089580911001089580911101F3
:1010F000089580911201089580913D0108959FB750
:10110000F89420914001222339F022E02093E90055
:101110003091E80035FD03C09FBF8FEF089531EA9D
:101120003093F10030E23093F1001092F100109210
:10113000F1001092F1001092F1002093F100109252
:10114000F1008093F1001092F1008AE38093E800AF
:101150009FBF80E008951F920F920FB60F92112447
:101160008F939F938091E1001092E10083FF11C063
:101170001092E90091E09093EB001092EC0092E164
:101180009093ED0098E09093F0001092400110923F
:101190003D0182FF13C080914001882379F0809146
:1011A0003F01882359F0815080933F01811106C08F
:1011B00084E08093E9008AE38093E8009F918F9117
:1011C0000F900FBE0F901F9018951F920F920FB6A1
:1011D0000F921124EF92FF920F931F932F933F933F
:1011E0004F935F936F937F938F939F93AF93BF932F
:1011F000EF93FF93CF93DF931F92CDB7DEB710929B
:10120000E9008091E80083FF14C19091F100809182
:10121000F1003091F1002091F100E32EF12CF22A3F
:101220000091F1002091F10010E0122B2091F100CB
:101230006091F10032EF3093E800863009F046C04B
:1012400036E08CE591E0FC01459154914E155F0527
:1012500039F4FC013296459154914017510721F021
:101260000796315081F7E5C0FC01349645915491C1
:10127000FC013696849130E0362B2F3F310519F072
:1012800010F02FEF30E0281708F4822F3EEF9091F6
:10129000E800292F2570D9F392FDCEC0982F813117
:1012A00008F090E1FA01292F222331F06491609334
:1012B000F10021503196F8CF490F511D891B309311
:1012C000E8008111E4CF903111F3B6C0853051F4BC
:1012D0008EEF8093E8000E9443058E2D80688093F6
:1012E000E300AAC0893059F5911180C0E092400115
:1012F00010923D0110923F018EEF8093E80041E093
:1013000085E092E04093E9009C012F5F3F4FFC0194
:1013100054915093EB00552359F0F90124912093F7
:10132000EC009C012D5F3F4F319684918093ED003E
:101330004F5F453011F0C901E5CF8EE175C08830AF
:1013400051F4903809F052C00E9443058091400149
:101350008093F10047C0813279F4913A09F046C098
:101360000E944305ECE0F1E081918093F10081E07F
:10137000E331F807C9F736C0803299F49132B1F5FC
:101380008091E80082FFFCCFECE0F1E08091F10079
:10139000819381E0E331F807C9F78BEF8093E80090
:1013A00021C0823241F4913209F043C0E0923D0104
:1013B0000E94430517C0811119C099830E944305FB
:1013C0009981923851F40093E9008091EB0085FBFC
:1013D000882780F91092E90001C080E08093F10035
:1013E0001092F1008EEF8093E80026C0282F2D7F09
:1013F0002130F9F49230E9F4EF28D9F40F779FEF18
:10140000900F9430B0F49EEF9093E8000093E900C1
:10141000833079F089E18093EB0081E090E0002E49
:1014200001C0880F0A94EAF78093EA001092EA005C
:1014300003C081E28093EB000F90DF91CF91FF9189
:10144000EF91BF91AF919F918F917F916F915F913C
:101450004F913F912F911F910F91FF90EF900F901F
:101460000FBE0F901F9018951F93CF93DF93EC0141
:10147000FE011491112351F01A3019F48DE00E94ED
:10148000A105812F0E94A1052196F2CFDF91CF9176
:101490001F9108958A3010F490E301C097E3890FFB
:1014A0000C94A105CF93C82F82958F700E944A0A91
:1014B0008C2F8F70CF910C944A0ACF93C82F892F0D
:1014C0000E94520A8C2FCF910C94520A0C94520A0B
:1014D000EF92FF920F931F93CF93DF93CDB7DEB7B9
:1014E00027970FB6F894DEBF0FBECDBF8E010F5FFA
:1014F0001F4F27E0F80111922A95E9F74AE0B80159
:101500000E94A20C7E01F8E0EF0EF11CF80181911F
:101510008F0181110E94A1050E151F05B9F72796AD
:101520000FB6F894DEBF0FBECDBFDF91CF911F91F4
:101530000F91FF90EF900895EF92FF920F931F93FA
:10154000CF93DF9300D000D01F92CDB7DEB78E01CE
:101550000F5F1F4F25E0F80111922A95E9F74AE045
:10156000B8010E94DE0C7E01F6E0EF0EF11CF801DE
:1015700081918F0181110E94A1050E151F05B9F7F8
:101580000F900F900F900F900F90DF91CF911F91C0
:101590000F91FF90EF900895EF92FF920F931F939A
:1015A000CF93DF93CDB7DEB72B970FB6F894DEBF9E
:1015B0000FBECDBF8E010F5F1F4F2BE0F8011192C0
:1015C0002A95E9F72AE0A8010E94AD0C7E01FCE013
:1015D000EF0EF11CF80181918F0181110E94A1058C
:1015E0000E151F05B9F72B960FB6F894DEBF0FBE88
:1015F000CDBFDF91CF911F910F91FF90EF90089594
:10160000EF92FF920F931F93CF93DF93CDB7DEB787
:101610002A970FB6F894DEBF0FBECDBF8E010F5FC5
:101620001F4F2AE0F80111922A95E9F72AE0A80154
:101630000E94BC0C7E01FBE0EF0EF11CF8018191D1
:101640008F0181110E94A1050E151F05B9F72A9679
:101650000FB6F894DEBF0FBECDBFDF91CF911F91C3
:101660000F91FF90EF900895CF93DF93D82FC62F5F
:10167000843010F080E05BC06430E0F70E94A70384
:101680002FEF85EA9EE0215080409040E1F700C0B6
:10169000000065E789E60E941404883659F741E0A6
:1016A0006BE689E60E9433044D2F440F440F440F2C
:1016B0006CE189E60E9433044C2F440F440F440F21
:1016C0006BE189E60E94330442E067E389E60E9409
:1016D000330440E062E08EE10E94330440E067E3BF
:1016E00089E60E9433044EE164E389E60E943304F4
:1016F00041E067E689E60E9433044DE164E289E651
:101700000E9433044EE965E289E60E94330443E017
:1017100066E289E60E94330446E967E289E60E94B0
:10172000330440E26AE689E60E94330481E0DF91F7
:10173000CF910895EF92FF920F931F93CF93DF9372
:10174000CDB7DEB765970FB6F894DEBF0FBECDBF3D
:101750008C01CE0101967C019EE4692F89E69D8B68
:101760000E941404F70181937F019D8991509A335F
:10177000A1F78F859889F801958384838F81988557
:101780009387828789819A81918B808B89899A89B5
:101790009383828389859A85918780878B819C81B9
:1017A000978786878B899C89918380838B859C858D
:1017B000978386838D819E819587848781E0659656
:1017C0000FB6F894DEBF0FBECDBFDF91CF911F9152
:1017D0000F91FF90EF900895EF92FF920F931F9358
:1017E000CF93DF93CDB7DEB727970FB6F894DEBF60
:1017F0000FBECDBF8C01CE0101967C0190E4692F14
:1018000089E69F830E941404F70181937F019F81E1
:1018100091509A33A1F789819A81F8019583848345
:101820008B819C81938382838D819E819183808330
:1018300081E027960FB6F894DEBF0FBECDBFDF91D3
:10184000CF911F910F91FF90EF900895EF92FF922B
:101850000F931F93CF93DF93CDB7DEB727970FB6C4
:10186000F894DEBF0FBECDBF8C01CE0101967C0186
:1018700098E4692F89E69F830E941404F7018193FD
:101880007F019F8191509234A1F789819A81F8015B
:10189000958384838B819C81938382838D819E81B8
:1018A0009183808381E027960FB6F894DEBF0FBE48
:1018B000CDBFDF91CF911F910F91FF90EF900895D1
:1018C000EF92FF920F931F93CF93DF93CDB7DEB7C5
:1018D00027970FB6F894DEBF0FBECDBF8C01CE01A7
:1018E00001967C019EE4692F89E69F830E9414047F
:1018F000F70181937F019F8191509834A1F78981ED
:101900009A81F801958384838B819C819383828360
:101910008D819E819183808381E027960FB6F89414
:10192000DEBF0FBECDBFDF91CF911F910F91FF9012
:10193000EF9008950E9427010E944B01FDCFF8947B
:101940000C940E0DBB274A3031F4992322F4BDE2EA
:10195000909581959F4F0C94DF0CBB272A3051F452
:10196000992342F4BDE290958095709561957F4FE3
:101970008F4F9F4F0C94BD0CBB27FA01A62F621707
:10198000710581059105330B30FB66F0AA27660FC0
:10199000771F881F991FAA1FA21710F0A21B63951B
:1019A0003850A9F7A05DAA3308F0A95DA19336F7D6
:1019B000B111B1931082CA010C94F80CBB27FB0142
:1019C0005527AA27880F991FAA1FA41710F0A41B38
:1019D00083955051B9F7A05DAA3308F0A95DA19392
:1019E000009779F7B111B1931192CB010C94F80CD7
:1019F000DC01FC01672F71917723E1F7329704C076
:101A00007C916D9370836291AE17BF07C8F3089500
:101A1000EE0FFF1F0590F491E02D0994F894FFCF8D
:101A200001012411110001111100110000E1000059
:0A1A300000000858595A525059009E
:00000001FF
