:100000000C9409010C9426010C9426010C947202A4
:100010000C9426010C9426010C9426010C942601C4
:100020000C9426010C9426010C9493090C94CD0990
:100030000C9426010C9426010C9426010C942601A4
:100040000C9426010C9426010C9426010C94260194
:100050000C942B030C9426010C9426010C9426017D
:100060000C9426010C9426010C9426010C94260174
:100070000C9426010C9426010C9426010C94260164
:100080000C9426010C9426010C9426010C94260154
:100090000C9426010C9426010C9426010C94260144
:1000A0000C9426010C9426010C9426013B0933097B
:1000B0002B0923091B0913090B090309FB08F30882
:1000C000EB08E308DB08D308CB08C308BB08B30878
:1000D000AB08A3089B0893088B0883087B08730868
:1000E0006B0863085B0853084B0843083B08330858
:1000F0002B0823081B0813080B080308FB07F3074A
:10010000EB07E307DB07D307CB07C307BB07B3073F
:10011000AB07A3079B0793078B0783077B0773072F
:100120006B0763075B0753074B0743073B070A0D42
:100130000073746F7077617463685F6E6F773A09EC
:10014000000A0D00090072665F646174613A09007B
:100150000A0D00494D5520646174613A090000019F
:100160000000F5011200020000B20143000300008C
:10017000AE0104010309049A011202030904920169
:100180000603030904880108080334003100300025
:10019000000006034D003200000012034A002E004A
:1001A00020004600690065006E0065000000040341
:1001B000090409024300020100C0320904000001E1
:1001C000020201000524001001052401010104249C
:1001D00002060524060001070582031000400904F9
:1001E0000100020A000000070503024000000705A5
:1001F00084024000001201000202000010C0167AC2
:10020000040001010203010001C1120180360181D5
:10021000360011241FBECFEFDAE0DEBFCDBF11E004
:10022000A0E0B1E0E0EFFBE102C005900D92A23149
:10023000B107D9F721E0A2E1B1E001C01D92AF34CE
:10024000B207E1F70E94820D0C94870D0C94000018
:100250000F931F93CF93DF9380910301909104013B
:100260000E948602C82F0E94CC02182F0E949D0176
:10027000D82F60910101809102010E94B101082FE5
:10028000809100010E945003912F990FDD0FDD0F27
:100290009D0F9C0F28E0029F900D1124789420E17F
:1002A000829F900D1124892FDF91CF911F910F9183
:1002B0000895EF92FF920F931F93CF93DF9300D097
:1002C00000D0CDB7DEB70E94A902882341F16A9A17
:1002D0008EB194E089278EB98CE291E00E94A90149
:1002E0000E94FE02AB01BC01403A86E8580781E05B
:1002F0006807710550F049835A836B837C830E94A1
:10030000B3027C816B815A81498111E1E12EF12C8C
:1003100000E010E02CE231E081E00E94C0030F9089
:100320000F900F900F90DF91CF911F910F91FF9041
:10033000EF90089580913F01089560E080E00E9471
:100340001C0C91E0811101C090E090933F01892F36
:1003500008950E94820C91E0811101C090E0892FE4
:100360000895982F862F40910701692F0E94370525
:1003700091E0811101C090E0892F0895CF92DF9222
:10038000EF92FF920F931F93CF93DF9300D000D093
:10039000CDB7DEB7942F49835A836B837C83EDB648
:1003A000FEB640910701509108016DB77EB7641BFE
:1003B000750B0FB6F8947EBF0FBE6DBFEDB7FEB7DD
:1003C0003196ADB7BEB711968C9391838A818283A3
:1003D0008B8183838C818483BA01655071096901A3
:1003E000C8016017710708F4CB0120E030E028173E
:1003F000390761F0D6011D916D01BF01620F731FB6
:10040000DB0115961C932F5F3F4FF1CFBF01809109
:1004100006010E94E00580E00FB6F894FEBE0FBE14
:10042000EDBE0F900F900F900F90DF91CF911F9125
:100430000F91FF90EF90DF90CF90089560910701AA
:100440000E948F0591E0811101C090E0892F0895ED
:10045000EF92FF920F931F93CF93DF931F92CDB72D
:10046000DEB7EDB6FEB6198201E010E09E012F5F07
:100470003F4F40E050E0BA0180E00E94BE012FEF04
:1004800031EE84E0215030408040E1F700C00000B0
:100490008091070190910801EDB7FEB7E81BF90BB9
:1004A0000FB6F894FEBF0FBEEDBF0DB71EB70F5FBE
:1004B0001F4FC8010E941E02882329F081E0F80125
:1004C00090819D3009F080E081700FB6F894FEBEF7
:1004D0000FBEEDBE0F90DF91CF911F910F91FF9056
:1004E000EF9008951F920F920FB60F9211240F9064
:1004F0000FBE0F901F901895E1E6F0E080E8808332
:10050000108281E008958091460108950E947C0246
:10051000E1E9F0E080818B7F80838081826080834D
:1005200080818E7F808380818F7E808380818860C0
:100530008083E0E9F0E080818D7F808380818E7F01
:10054000808384EF91E0909399008093980081E0FC
:10055000089598B391FB882780F991FDC19A089579
:10056000809141010895F894109242011092430144
:10057000109244011092450110928500109284005F
:100580002091840030E0809185007894382B81E0C0
:10059000232B09F080E00895F8940E947C02E1E8A2
:1005A000F0E080818460808380818D7F8083808182
:1005B0008160808380818F7E80838081877F80833C
:1005C000E0E8F0E080818D7F808380818E7F808372
:1005D000EFE6F0E08081816080831092420110920A
:1005E0004301109244011092450181E08093410142
:1005F0000E94B30278948091410108950F931F9354
:10060000609184002091850070E080E090E0722B82
:100610000091420110914301209144013091450124
:10062000980111270027600F711F821F931F1F91D0
:100630000F910895CF92DF92EF92FF926B017C01B0
:100640000E94FE026C197D098E099F09FF90EF90B0
:10065000DF90CF9008951F920F920FB60F92112442
:100660008F939F93AF93BF938091420190914301E9
:10067000A0914401B09145010196A11DB11D809347
:10068000420190934301A0934401B0934501BF916F
:10069000AF919F918F910F900FBE0F901F90189563
:1006A000882381F06E9A76980E9430060E9449064F
:1006B0008823E1F30E94490691E0811101C090E096
:1006C000892F089580E008951F93CF93DF930E94B0
:1006D0002802C82F0E949A01182F0E948302D82F47
:1006E0000E94B002112311F092E001C090E0C90F06
:1006F000DD2311F094E001C090E0C90F882311F0D0
:1007000098E001C090E0C90F8C2F90E00E94500B40
:1007100081E0C11101C080E0DF91CF911F91089568
:10072000DF92EF92FF920F931F93CF93DF938C0191
:10073000E62E83E591E00E941C0BE80100E010E04A
:10074000DD24D394FF24E7FCF0940E151F055CF420
:1007500089E00E948906D822899199910E94500BC4
:100760000F5F1F4FF2CF80E591E00E941C0B8D2D93
:10077000DF91CF911F910F91FF90EF90DF9008953F
:100780002F923F924F925F926F927F928F929F92A1
:10079000AF92BF92CF92DF92EF92FF920F931F938F
:1007A000CF93DF93CDB7DEB766970FB6F894DEBF71
:1007B0000FBECDBF8A8B890186E491E04B8B5C8BA9
:1007C0006D8B7E8B0E941C0BCE0101961C0181E17A
:1007D000F10111928A95E9F7FA89F9834B895C89CD
:1007E0006D897E89472E5524662477244A82862E79
:1007F000912CA12CB12C6B83C52ED12CE12CF12C8A
:100800005C834D83F80180818E8381818F83828117
:1008100088878381898784818A8785818B87868180
:100820008C8787818D8780858E8781858F8782855C
:10083000888B8385898BFA898F2F90E00E94500BDB
:1008400084E491E00E941C0B742C662455244424FB
:100850004B89440E511C611C711C5401992488243D
:10086000480C591C6A1C7B1CFE2CED2CDC2CCC2467
:100870004C0C5D1C6E1C7F1CC301B2010E94B40BAA
:100880008E010A5F1F4F8091090190910A01980122
:10089000221933092817390754F489E00E94890680
:1008A000F801819191918F010E94500BECCF81E46E
:1008B00091E00E941C0B81E066960FB6F894DEBFB3
:1008C0000FBECDBFDF91CF911F910F91FF90EF90A1
:1008D000DF90CF90BF90AF909F908F907F906F9060
:1008E0005F904F903F902F90089580E00895CF92B1
:1008F000DF92EF92FF926B017C0181E391E00E9415
:100900001C0BC701B6010E94E80B8EE291E00E9429
:100910001C0B81E0FF90EF90DF90CF900895589AE4
:10092000599A5A9A8CE08093B800E9E6F0E0808109
:100930008062808380818F7E8083EA9A7894089594
:1009400084E88093BC008091BC0087FFFCCF80913D
:10095000BB00089584E98093BC00089520E030E056
:100960008091BC0087FD06C02F5F3F4F293E83E08A
:100970003807B1F781E0283E334009F480E008955C
:100980008093BB0084E88093BC000E94AE0488235F
:1009900021F08091B900887F089580E008951F9329
:1009A000CF93DF931F92CDB7DEB7182F84EA8093E1
:1009B000BC0069830E94AE046981811104C094E97E
:1009C0009093BC0014C0812F880F662331F08F5F95
:1009D0000E94C004883451F404C00E94C0048032D4
:1009E00029F484E98093BC0080E001C081E00F908D
:1009F000DF91CF911F910895CF93DF93C82FD62F0A
:100A000060E00E94CF04882391F08D2F0E94C004E3
:100A1000882369F084E98093BC0061E08C2F0E94F8
:100A2000CF04882321F0DF91CF910C94A00480E0C3
:100A3000DF91CF910895CF93DF93D62FC42F60E03D
:100A40000E94CF04811102C080E00EC08D2F0E9451
:100A5000C0048823C9F38C2F0E94C0048823A1F30B
:100A600084E98093BC0081E0DF91CF910895CF931A
:100A7000DF9300D01F92CDB7DEB74B836A838983A3
:100A80000E948F0494EA9093BC0089816A814B8113
:100A90009091BC0097FFFCCF90E59093BB0094E849
:100AA0009093BC009091BC0097FFFCCF9091B9004F
:100AB000987F903229F484E98093BC0080E029C0BB
:100AC00091E09093BB0094E89093BC009091BC009F
:100AD00097FFFCCF8093BB0084E88093BC0080919B
:100AE000BC0087FFFCCF6093BB0084E88093BC0010
:100AF0008091BC0087FFFCCF4093BB0084E88093CB
:100B0000BC008091BC0087FFFCCF84E98093BC00CF
:100B100081E00F900F900F90DF91CF91089524EA1C
:100B20002093BC002091BC0027FFFCCF21E520933F
:100B3000BB0024E82093BC002091BC0027FFFCCF21
:100B40002091B900287F2834A9F024EC2093BC0020
:100B50002091BC0027FFFCCF2091BB0026130AC0C8
:100B6000FC0120E030E0772767FD70956150710946
:100B700044EC0EC084E98093BC0080E0089550915D
:100B8000BC0057FFFCCF5091BB0051932F5F3F4FEC
:100B9000261737071CF44093BC00F1CF44E840937C
:100BA000BC004091BC0047FFFCCF4091BB00FC0162
:100BB000E20FF31F408384E98093BC0081E0089535
:100BC000F89494EA9093BC009091BC0097FFFCCFFE
:100BD00090E59093BB0094E89093BC009091BC008A
:100BE00097FFFCCF9091B900987F903231F484E95F
:100BF0008093BC00789480E0089593E09093BB00CC
:100C000094E89093BC009091BC0097FFFCCF809338
:100C1000BB0084E88093BC008091BC0087FFFCCFC0
:100C2000FB01552747FD509524E8CF01861B970B04
:100C30008417950754F481918093BB002093BC00E6
:100C40008091BC0087FFFCCFF0CF84E98093BC008B
:100C5000789481E008958091E80080FFFCCF0895AA
:100C600081E08093D70080EA8093D80082E189BD3B
:100C700009B400FEFDCF80E98093D8001092E00017
:100C800010924A01109247018CE08093E200789420
:100C9000089580914A0108959FB7F89480914A0180
:100CA000882339F083E08093E9008091E80085FD96
:100CB00003C09FBF8FEF08958091F1002091E8005D
:100CC00025FD03C02BE62093E8009FBF08959FB742
:100CD000F89480914A01882331F083E08093E90001
:100CE0008091F20001C080E09FBF089580914A0189
:100CF000882371F08FB7F89493E09093E9002BE686
:100D00009091E80095FF03C02093E800F9CF8FBFD2
:100D1000089590914A01992371F09FB7F89424E0C7
:100D20002093E90020914801222349F02091E80016
:100D300025FD03C09FBF8FEF0895109248012091B9
:100D4000E400275E34E04091E80045FD12C09FBFFB
:100D50009091E400921304C081E080934801EBCFAE
:100D600090914A01992339F39FB7F8943093E900A1
:100D7000EACF8093F1008091E80085FD03C08AE30B
:100D80008093E80085E0809349019FBF80E008954B
:100D900090914A019923D1F09FB7F89424E02093D1
:100DA000E9002091E80025FD02C09FBF0FC080939D
:100DB000F1008091E80085FD03C08AE38093E8009C
:100DC00085E0809349019FBF80E008958FEF0895EB
:100DD000EF92FF921F93CF93DF937C01CB01209181
:100DE0004A01222371F0AFB7F89424E02093E90080
:100DF00020914801222349F02091E80025FD03C0FD
:100E0000AFBF8FEF42C210924801B4E0C0E4DAE312
:100E100015E0009709F437C22091E400275E309175
:100E2000E80035FD12C0AFBF3091E400321304C0BA
:100E300081E080934801E5CF30914A01332309F3E3
:100E4000AFB7F894B093E900EACF2091F2004C2FAD
:100E5000421B242F30E08217930708F4482F841B8D
:100E6000910950E04134510508F0FDC14A5A5F4FE5
:100E7000FA010C94F00DF70120812093F100970105
:100E80002F5F3F4F7901F70120812093F1009701F7
:100E90002F5F3F4F7901F70120812093F1009701E7
:100EA0002F5F3F4F7901F70120812093F1009701D7
:100EB0002F5F3F4F7901F70120812093F1009701C7
:100EC0002F5F3F4F7901F70120812093F1009701B7
:100ED0002F5F3F4F7901F70120812093F1009701A7
:100EE0002F5F3F4F7901F70120812093F100970197
:100EF0002F5F3F4F7901F70120812093F100970187
:100F00002F5F3F4F7901F70120812093F100970176
:100F10002F5F3F4F7901F70120812093F100970166
:100F20002F5F3F4F7901F70120812093F100970156
:100F30002F5F3F4F7901F70120812093F100970146
:100F40002F5F3F4F7901F70120812093F100970136
:100F50002F5F3F4F7901F70120812093F100970126
:100F60002F5F3F4F7901F70120812093F100970116
:100F70002F5F3F4F7901F70120812093F100970106
:100F80002F5F3F4F7901F70120812093F1009701F6
:100F90002F5F3F4F7901F70120812093F1009701E6
:100FA0002F5F3F4F7901F70120812093F1009701D6
:100FB0002F5F3F4F7901F70120812093F1009701C6
:100FC0002F5F3F4F7901F70120812093F1009701B6
:100FD0002F5F3F4F7901F70120812093F1009701A6
:100FE0002F5F3F4F7901F70120812093F100970196
:100FF0002F5F3F4F7901F70120812093F100970186
:101000002F5F3F4F7901F70120812093F100970175
:101010002F5F3F4F7901F70120812093F100970165
:101020002F5F3F4F7901F70120812093F100970155
:101030002F5F3F4F7901F70120812093F100970145
:101040002F5F3F4F7901F70120812093F100970135
:101050002F5F3F4F7901F70120812093F100970125
:101060002F5F3F4F7901F70120812093F100970115
:101070002F5F3F4F7901F70120812093F100970105
:101080002F5F3F4F7901F70120812093F1009701F5
:101090002F5F3F4F7901F70120812093F1009701E5
:1010A0002F5F3F4F7901F70120812093F1009701D5
:1010B0002F5F3F4F7901F70120812093F1009701C5
:1010C0002F5F3F4F7901F70120812093F1009701B5
:1010D0002F5F3F4F7901F70120812093F1009701A5
:1010E0002F5F3F4F7901F70120812093F100970195
:1010F0002F5F3F4F7901F70120812093F100970185
:101100002F5F3F4F7901F70120812093F100970174
:101110002F5F3F4F7901F70120812093F100970164
:101120002F5F3F4F7901F70120812093F100970154
:101130002F5F3F4F7901F70120812093F100970144
:101140002F5F3F4F7901F70120812093F100970134
:101150002F5F3F4F7901F70120812093F100970124
:101160002F5F3F4F7901F70120812093F100970114
:101170002F5F3F4F7901F70120812093F100970104
:101180002F5F3F4F7901F70120812093F1009701F4
:101190002F5F3F4F7901F70120812093F1009701E4
:1011A0002F5F3F4F7901F70120812093F1009701D4
:1011B0002F5F3F4F7901F70120812093F1009701C4
:1011C0002F5F3F4F7901F70120812093F1009701B4
:1011D0002F5F3F4F7901F70120812093F1009701A4
:1011E0002F5F3F4F7901F70120812093F100970194
:1011F0002F5F3F4F7901F70120812093F100970184
:101200002F5F3F4F7901F70120812093F100970173
:101210002F5F3F4F7901F70120812093F100970163
:101220002F5F3F4F7901F70120812093F100970153
:101230002F5F3F4F7901F70120812093F100970143
:101240002F5F3F4F7901F70120812093F100970133
:101250002F5F3F4F7901F70120812093F100970123
:101260002F5F3F4F7901F70120812093F100970113
:101270002F5F3F4F79012091E80025FFD093E800D0
:1012800010934901C6CDAFBF80E0DF91CF911F9190
:10129000FF90EF9008958FB7F894909149019923AA
:1012A00041F094E09093E9009AE39093E800109263
:1012B00049018FBF089580910F0108958091100119
:1012C00008958091110108958091470108959FB775
:1012D000F89420914A01222339F022E02093E9007A
:1012E0003091E80035FD03C09FBF8FEF089531EACC
:1012F0003093F10030E23093F1001092F10010923F
:10130000F1001092F1001092F1002093F100109280
:10131000F1008093F1001092F1008AE38093E800DD
:101320009FBF80E008951F920F920FB60F92112475
:101330008F939F938091E1001092E10083FF11C091
:101340001092E90091E09093EB001092EC0092E192
:101350009093ED0098E09093F00010924A01109263
:10136000470182FF13C080914A01882379F0809160
:101370004901882359F0815080934901811106C0A9
:1013800084E08093E9008AE38093E8009F918F9145
:101390000F900FBE0F901F9018951F920F920FB6CF
:1013A0000F921124EF92FF920F931F932F933F936D
:1013B0004F935F936F937F938F939F93AF93BF935D
:1013C000EF93FF93CF93DF931F92CDB7DEB71092C9
:1013D000E9008091E80083FF14C19091F1008091B1
:1013E000F1003091F1002091F100E32EF12CF22A6E
:1013F0000091F1002091F10010E0122B2091F100FA
:101400006091F10032EF3093E800863009F046C079
:1014100036E08EE591E0FC01459154914E155F0553
:1014200039F4FC013296459154914017510721F04F
:101430000796315081F7E5C0FC01349645915491EF
:10144000FC013696849130E0362B2F3F310519F0A0
:1014500010F02FEF30E0281708F4822F3EEF909124
:10146000E800292F2570D9F392FDCEC0982F813145
:1014700008F090E1FA01292F222331F06491609362
:10148000F10021503196F8CF490F511D891B30933F
:10149000E8008111E4CF903111F3B6C0853051F4EA
:1014A0008EEF8093E8000E942B068E2D806880933B
:1014B000E300AAC0893059F5911180C0E0924A0139
:1014C00010924701109249018EEF8093E80041E0AD
:1014D00087E092E04093E9009C012F5F3F4FFC01C1
:1014E00054915093EB00552359F0F9012491209326
:1014F000EC009C012D5F3F4F319684918093ED006D
:101500004F5F453011F0C901E5CF8EE175C08830DD
:1015100051F4903809F052C00E942B0680914A0184
:101520008093F10047C0813279F4913A09F046C0C6
:101530000E942B06EBE0F1E081918093F10081E0C5
:10154000E231F807C9F736C0803299F49132B1F52B
:101550008091E80082FFFCCFEBE0F1E08091F100A8
:10156000819381E0E231F807C9F78BEF8093E800BF
:1015700021C0823241F4913209F043C0E092470128
:101580000E942B0617C0811119C099830E942B0657
:101590009981923851F40093E9008091EB0085FB2A
:1015A000882780F91092E90001C080E08093F10063
:1015B0001092F1008EEF8093E80026C0282F2D7F37
:1015C0002130F9F49230E9F4EF28D9F40F779FEF46
:1015D000900F9430B0F49EEF9093E8000093E900F0
:1015E000833079F089E18093EB0081E090E0002E78
:1015F00001C0880F0A94EAF78093EA001092EA008B
:1016000003C081E28093EB000F90DF91CF91FF91B7
:10161000EF91BF91AF919F918F917F916F915F916A
:101620004F913F912F911F910F91FF90EF900F904D
:101630000FBE0F901F9018951F93CF93DF93EC016F
:10164000FE011491112351F01A3019F48DE00E941B
:101650008906812F0E9489062196F2CFDF91CF91D2
:101660001F9108958A3010F490E301C097E3890F29
:101670000C948906CF93C82F82958F700E94320BED
:101680008C2F8F70CF910C94320BCF93C82F892F52
:101690000E943A0B8C2FCF910C943A0B0C943A0B7E
:1016A000EF92FF920F931F93CF93DF93CDB7DEB7E7
:1016B00027970FB6F894DEBF0FBECDBF8E010F5F28
:1016C0001F4F27E0F80111922A95E9F74AE0B80187
:1016D0000E948A0D7E01F8E0EF0EF11CF801819165
:1016E0008F0181110E9489060E151F05B9F72796F3
:1016F0000FB6F894DEBF0FBECDBFDF91CF911F9123
:101700000F91FF90EF900895EF92FF920F931F9328
:10171000CF93DF9300D000D01F92CDB7DEB78E01FC
:101720000F5F1F4F25E0F80111922A95E9F74AE073
:10173000B8010E94C60D7E01F6E0EF0EF11CF80123
:1017400081918F0181110E9489060E151F05B9F73D
:101750000F900F900F900F900F90DF91CF911F91EE
:101760000F91FF90EF900895EF92FF920F931F93C8
:10177000CF93DF93CDB7DEB72B970FB6F894DEBFCC
:101780000FBECDBF8E010F5F1F4F2BE0F8011192EE
:101790002A95E9F72AE0A8010E94950D7E01FCE058
:1017A000EF0EF11CF80181918F0181110E948906D1
:1017B0000E151F05B9F72B960FB6F894DEBF0FBEB6
:1017C000CDBFDF91CF911F910F91FF90EF900895C2
:1017D000EF92FF920F931F93CF93DF93CDB7DEB7B6
:1017E0002A970FB6F894DEBF0FBECDBF8E010F5FF4
:1017F0001F4F2AE0F80111922A95E9F72AE0A80183
:101800000E94A40D7E01FBE0EF0EF11CF801819116
:101810008F0181110E9489060E151F05B9F72A96BE
:101820000FB6F894DEBF0FBECDBFDF91CF911F91F1
:101830000F91FF90EF900895CF93DF93D82FC62F8D
:10184000843010F080E05BC06430E0F70E948F04C9
:101850002FEF85EA9EE0215080409040E1F700C0E4
:10186000000065E789E60E94FC04883659F741E0EC
:101870006BE689E60E941B054D2F440F440F440F71
:101880006CE189E60E941B054C2F440F440F440F66
:101890006BE189E60E941B0542E067E389E60E944E
:1018A0001B0540E062E08EE10E941B0540E067E31B
:1018B00089E60E941B054EE164E389E60E941B0550
:1018C00041E067E689E60E941B054DE164E289E696
:1018D0000E941B054EE965E289E60E941B0543E074
:1018E00066E289E60E941B0546E967E289E60E94F6
:1018F0001B0540E26AE689E60E941B0581E0DF9154
:10190000CF910895EF92FF920F931F93CF93DF93A0
:10191000CDB7DEB765970FB6F894DEBF0FBECDBF6B
:101920008C01CE0101967C019EE4692F89E69D8B96
:101930000E94FC04F70181937F019D8991509A33A5
:10194000A1F78F859889F801958384838F81988585
:101950009387828789819A81918B808B89899A89E3
:101960009383828389859A85918780878B819C81E7
:10197000978786878B899C89918380838B859C85BB
:10198000978386838D819E819587848781E0659684
:101990000FB6F894DEBF0FBECDBFDF91CF911F9180
:1019A0000F91FF90EF900895EF92FF920F931F9386
:1019B000CF93DF93CDB7DEB727970FB6F894DEBF8E
:1019C0000FBECDBF8C01CE0101967C0190E4692F42
:1019D00089E69F830E94FC04F70181937F019F8128
:1019E00091509A33A1F789819A81F8019583848374
:1019F0008B819C81938382838D819E81918380835F
:101A000081E027960FB6F894DEBF0FBECDBFDF9101
:101A1000CF911F910F91FF90EF900895EF92FF9259
:101A20000F931F93CF93DF93CDB7DEB727970FB6F2
:101A3000F894DEBF0FBECDBF8C01CE0101967C01B4
:101A400098E4692F89E69F830E94FC04F701819343
:101A50007F019F8191509234A1F789819A81F80189
:101A6000958384838B819C81938382838D819E81E6
:101A70009183808381E027960FB6F894DEBF0FBE76
:101A8000CDBFDF91CF911F910F91FF90EF900895FF
:101A9000EF92FF920F931F93CF93DF93CDB7DEB7F3
:101AA00027970FB6F894DEBF0FBECDBF8C01CE01D5
:101AB00001967C019EE4692F89E69F830E94FC04C5
:101AC000F70181937F019F8191509834A1F789811B
:101AD0009A81F801958384838B819C81938382838F
:101AE0008D819E819183808381E027960FB6F89443
:101AF000DEBF0FBECDBFDF91CF911F910F91FF9041
:101B0000EF9008950E9428010E945901FDCFF8949A
:101B10000C94F60DBB274A3031F4992322F4BDE230
:101B2000909581959F4F0C94C70DBB272A3051F497
:101B3000992342F4BDE290958095709561957F4F11
:101B40008F4F9F4F0C94A50DBB27FA01A62F62174C
:101B5000710581059105330B30FB66F0AA27660FEE
:101B6000771F881F991FAA1FA21710F0A21B639549
:101B70003850A9F7A05DAA3308F0A95DA19336F704
:101B8000B111B1931082CA010C94E00DBB27FB0187
:101B90005527AA27880F991FAA1FA41710F0A41B66
:101BA00083955051B9F7A05DAA3308F0A95DA193C0
:101BB000009779F7B111B1931192CB010C94E00D1C
:101BC000DC01FC01672F71917723E1F7329704C0A4
:101BD0007C916D9370836291AE17BF07C8F308952F
:101BE000EE0FFF1F0590F491E02D0994F894FFCFBC
:101BF000010124640001111100110000E100000046
:021C00000008DA
:00000001FF
